{
  "contractName": "AssignLevel",
  "abi": [
    {
      "inputs": [],
      "stateMutability": "nonpayable",
      "type": "constructor"
    },
    {
      "anonymous": false,
      "inputs": [
        {
          "indexed": false,
          "internalType": "string",
          "name": "",
          "type": "string"
        },
        {
          "indexed": false,
          "internalType": "bytes32",
          "name": "",
          "type": "bytes32"
        },
        {
          "indexed": false,
          "internalType": "uint256",
          "name": "",
          "type": "uint256"
        }
      ],
      "name": "EvidenceRegistered",
      "type": "event"
    },
    {
      "inputs": [
        {
          "internalType": "string",
          "name": "",
          "type": "string"
        }
      ],
      "name": "Levels",
      "outputs": [
        {
          "internalType": "uint256",
          "name": "",
          "type": "uint256"
        }
      ],
      "stateMutability": "view",
      "type": "function",
      "constant": true
    },
    {
      "inputs": [
        {
          "internalType": "bytes32",
          "name": "",
          "type": "bytes32"
        }
      ],
      "name": "Objects",
      "outputs": [
        {
          "internalType": "uint256",
          "name": "",
          "type": "uint256"
        }
      ],
      "stateMutability": "view",
      "type": "function",
      "constant": true
    },
    {
      "inputs": [
        {
          "internalType": "string",
          "name": "qualification",
          "type": "string"
        }
      ],
      "name": "getLevel",
      "outputs": [
        {
          "internalType": "uint256",
          "name": "",
          "type": "uint256"
        }
      ],
      "stateMutability": "view",
      "type": "function",
      "constant": true
    },
    {
      "inputs": [
        {
          "internalType": "bytes32",
          "name": "key",
          "type": "bytes32"
        }
      ],
      "name": "DoesExists",
      "outputs": [
        {
          "internalType": "bool",
          "name": "",
          "type": "bool"
        }
      ],
      "stateMutability": "view",
      "type": "function",
      "constant": true
    },
    {
      "inputs": [
        {
          "internalType": "string",
          "name": "qualification",
          "type": "string"
        },
        {
          "internalType": "bytes32",
          "name": "key",
          "type": "bytes32"
        }
      ],
      "name": "setLevel",
      "outputs": [],
      "stateMutability": "payable",
      "type": "function",
      "payable": true
    },
    {
      "inputs": [
        {
          "internalType": "bytes32",
          "name": "key",
          "type": "bytes32"
        }
      ],
      "name": "returnLevel",
      "outputs": [
        {
          "internalType": "uint256",
          "name": "",
          "type": "uint256"
        }
      ],
      "stateMutability": "view",
      "type": "function",
      "constant": true
    }
  ],
  "bytecode": "0x60806040523480156200001157600080fd5b506007600060405162000024906200016f565b908152602001604051809103902081905550600660006040516200004890620001d6565b908152602001604051809103902081905550600560006040516200006c906200023d565b908152602001604051809103902081905550600460006040516200009090620002a4565b90815260200160405180910390208190555060036000604051620000b4906200030b565b90815260200160405180910390208190555060026000604051620000d89062000372565b90815260200160405180910390208190555060016000604051620000fc90620003d9565b908152602001604051809103902081905550620003f0565b600081905092915050565b7f4365727461696e00000000000000000000000000000000000000000000000000600082015250565b60006200015760078362000114565b915062000164826200011f565b600782019050919050565b60006200017c8262000148565b9150819050919050565b7f416c6d6f7374204365727461696e000000000000000000000000000000000000600082015250565b6000620001be600e8362000114565b9150620001cb8262000186565b600e82019050919050565b6000620001e382620001af565b9150819050919050565b7f50726f6261626c65000000000000000000000000000000000000000000000000600082015250565b60006200022560088362000114565b91506200023282620001ed565b600882019050919050565b60006200024a8262000216565b9150819050919050565b7f536f6d657768617420556e6365727461696e0000000000000000000000000000600082015250565b60006200028c60128362000114565b9150620002998262000254565b601282019050919050565b6000620002b1826200027d565b9150819050919050565b7f486967686c7920556e6365727461696e00000000000000000000000000000000600082015250565b6000620002f360108362000114565b91506200030082620002bb565b601082019050919050565b60006200031882620002e4565b9150819050919050565b7f506f737369626c65000000000000000000000000000000000000000000000000600082015250565b60006200035a60088362000114565b9150620003678262000322565b600882019050919050565b60006200037f826200034b565b9150819050919050565b7f496e636f72726563740000000000000000000000000000000000000000000000600082015250565b6000620003c160098362000114565b9150620003ce8262000389565b600982019050919050565b6000620003e682620003b2565b9150819050919050565b610a3180620004006000396000f3fe6080604052600436106100555760003560e01c80630217264a1461005a5780630b181f1c1461009757806377225ea3146100d4578063b54d6cbd14610111578063f8d7f3131461014e578063ff1631cb1461018b575b600080fd5b34801561006657600080fd5b50610081600480360381019061007c919061056f565b6101a7565b60405161008e91906105d1565b60405180910390f35b3480156100a357600080fd5b506100be60048036038101906100b99190610622565b6101ce565b6040516100cb91906105d1565b60405180910390f35b3480156100e057600080fd5b506100fb60048036038101906100f69190610622565b6101e6565b60405161010891906105d1565b60405180910390f35b34801561011d57600080fd5b506101386004803603810190610133919061056f565b610252565b60405161014591906105d1565b60405180910390f35b34801561015a57600080fd5b5061017560048036038101906101709190610622565b610280565b604051610182919061066a565b60405180910390f35b6101a560048036038101906101a09190610685565b6102e2565b005b600080826040516101b89190610752565b9081526020016040518091039020549050919050565b60016020528060005260406000206000915090505481565b6000600115156101f583610280565b151514610237576040517f08c379a000000000000000000000000000000000000000000000000000000000815260040161022e906107c6565b60405180910390fd5b60016000838152602001908152602001600020549050919050565b6000818051602081018201805184825260208301602085012081835280955050505050506000915090505481565b600080600090505b6002805490508110156102d75782600282815481106102aa576102a96107e6565b5b9060005260206000200154036102c45760019150506102dd565b80806102cf90610844565b915050610288565b50600090505b919050565b600015156102ef82610280565b151514610331576040517f08c379a0000000000000000000000000000000000000000000000000000000008152600401610328906108d8565b60405180910390fd5b600061033c836101a7565b1161037c576040517f08c379a000000000000000000000000000000000000000000000000000000000815260040161037390610944565b60405180910390fd5b610385826101a7565b600160008381526020019081526020016000208190555060028190806001815401808255809150506001900390600052602060002001600090919091909150557f6211c9c494c8794dc38d069e18d67cb0d9f8153377af5b9e74ab4bee3e3b5a0b8160016000848152602001908152602001600020546040516104099291906109bf565b60405180910390a15050565b6000604051905090565b600080fd5b600080fd5b600080fd5b600080fd5b6000601f19601f8301169050919050565b7f4e487b7100000000000000000000000000000000000000000000000000000000600052604160045260246000fd5b61047c82610433565b810181811067ffffffffffffffff8211171561049b5761049a610444565b5b80604052505050565b60006104ae610415565b90506104ba8282610473565b919050565b600067ffffffffffffffff8211156104da576104d9610444565b5b6104e382610433565b9050602081019050919050565b82818337600083830152505050565b600061051261050d846104bf565b6104a4565b90508281526020810184848401111561052e5761052d61042e565b5b6105398482856104f0565b509392505050565b600082601f83011261055657610555610429565b5b81356105668482602086016104ff565b91505092915050565b6000602082840312156105855761058461041f565b5b600082013567ffffffffffffffff8111156105a3576105a2610424565b5b6105af84828501610541565b91505092915050565b6000819050919050565b6105cb816105b8565b82525050565b60006020820190506105e660008301846105c2565b92915050565b6000819050919050565b6105ff816105ec565b811461060a57600080fd5b50565b60008135905061061c816105f6565b92915050565b6000602082840312156106385761063761041f565b5b60006106468482850161060d565b91505092915050565b60008115159050919050565b6106648161064f565b82525050565b600060208201905061067f600083018461065b565b92915050565b6000806040838503121561069c5761069b61041f565b5b600083013567ffffffffffffffff8111156106ba576106b9610424565b5b6106c685828601610541565b92505060206106d78582860161060d565b9150509250929050565b600081519050919050565b600081905092915050565b60005b838110156107155780820151818401526020810190506106fa565b60008484015250505050565b600061072c826106e1565b61073681856106ec565b93506107468185602086016106f7565b80840191505092915050565b600061075e8284610721565b915081905092915050565b600082825260208201905092915050565b7f4f626a65637420646f6573206e6f742065786973747300000000000000000000600082015250565b60006107b0601683610769565b91506107bb8261077a565b602082019050919050565b600060208201905081810360008301526107df816107a3565b9050919050565b7f4e487b7100000000000000000000000000000000000000000000000000000000600052603260045260246000fd5b7f4e487b7100000000000000000000000000000000000000000000000000000000600052601160045260246000fd5b600061084f826105b8565b91507fffffffffffffffffffffffffffffffffffffffffffffffffffffffffffffffff820361088157610880610815565b5b600182019050919050565b7f45766964656e636520616c726561647920616464656400000000000000000000600082015250565b60006108c2601683610769565b91506108cd8261088c565b602082019050919050565b600060208201905081810360008301526108f1816108b5565b9050919050565b7f496e76616c6964207175616c696669636174696f6e0000000000000000000000600082015250565b600061092e601583610769565b9150610939826108f8565b602082019050919050565b6000602082019050818103600083015261095d81610921565b9050919050565b7f45766964656e6365205265676973746572656400000000000000000000000000600082015250565b600061099a601383610769565b91506109a582610964565b602082019050919050565b6109b9816105ec565b82525050565b600060608201905081810360008301526109d88161098d565b90506109e760208301856109b0565b6109f460408301846105c2565b939250505056fea264697066735822122001fb9b9b29c18f2c28f1b8372291496f771306b7e391ba997bb5ca1d42dba17964736f6c63430008110033",
  "immutableReferences": {},
  "source": "// SPDX-License-Identifier: MIT\r\npragma solidity ^0.8.17;\r\n\r\n// this is for objects\r\n\r\ncontract AssignLevel{\r\n    mapping(string => uint) public Levels;  // mapping for assinging levels\r\n    // maps do not allow duplicate keys but key-value pair will be overwritten \r\n    mapping(bytes32 => uint) public Objects; // only hash of og evidence is stored and since hash is unique there are no chances of duplicacy \r\n    bytes32[] private Current_Evi; // store all registered objects' hash ,can do with block hash too ? but like why do i need to \r\n    \r\n    // EVENTS\r\n    event EvidenceRegistered(string, bytes32, uint);\r\n\r\n    constructor(){  // casey's scaling  will start this from 1 to 7 cuz map allocates zero value to  all possible keys, \r\n        //so even if the qualification is not valid it will have a level of 0\r\n        Levels[\"Certain\"] = 7;\r\n        Levels[\"Almost Certain\"] = 6;\r\n        Levels[\"Probable\"] = 5;\r\n        Levels[\"Somewhat Uncertain\"] = 4;\r\n        Levels[\"Highly Uncertain\"] = 3;\r\n        Levels[\"Possible\"] = 2;\r\n        Levels[\"Incorrect\"] = 1;\r\n    }\r\n    \r\n    \r\n    function getLevel(string memory qualification) public view returns(uint){\r\n        // in mapping all possible keys are considered and default values are set to 0 \r\n        // so 0 can and will be returned in case of invalid qualification\r\n        // maybe i can add an extra check and use og casey's scaling but like too much work \r\n        // it could be like qualification == \"Incorrect\" && levels[quali___] == 0 then assign it to evidence, maybe discuss it???\r\n        return (Levels[qualification]);\r\n    }\r\n    \r\n    function DoesExists (bytes32 key) public view returns(bool){  // check if evidence exists , high gas requirement , but it eezz what it eez \r\n        for(uint i =0; i<Current_Evi.length; i++){\r\n            if(Current_Evi[i] == key){\r\n                return true; \r\n            }\r\n        }\r\n        return false;\r\n    }\r\n\r\n    function setLevel(string memory qualification, bytes32 key) public payable{\r\n        require(DoesExists(key) == false, \"Evidence already added\" );\r\n        require(getLevel(qualification)> 0, \"Invalid qualification\");\r\n        Objects[key] = getLevel(qualification);\r\n        Current_Evi.push(key);\r\n        emit EvidenceRegistered(\"Evidence Registered\", key, Objects[key]);\r\n    }\r\n\r\n    function returnLevel(bytes32 key) public view returns(uint){\r\n        require(DoesExists(key) == true, \"Object does not exists\");\r\n        return Objects[key];\r\n    }\r\n}",
  "sourcePath": "C:\\Users\\Lokesh\\Desktop\\jam\\pro\\contracts\\AssignLevel.sol",
  "compiler": {
    "name": "solc",
    "version": "0.8.17+commit.8df45f5f.Emscripten.clang"
  },
  "schemaVersion": "3.4.15",
  "updatedAt": "2023-09-19T18:05:11.330Z",
  "networkType": "ethereum",
  "devdoc": {
    "kind": "dev",
    "methods": {},
    "version": 1
  },
  "userdoc": {
    "kind": "user",
    "methods": {},
    "version": 1
  }
}