{
  "contractName": "AssignRole",
  "abi": [
    {
      "inputs": [],
      "stateMutability": "nonpayable",
      "type": "constructor"
    },
    {
      "anonymous": false,
      "inputs": [
        {
          "indexed": false,
          "internalType": "string",
          "name": "",
          "type": "string"
        },
        {
          "indexed": false,
          "internalType": "address",
          "name": "",
          "type": "address"
        },
        {
          "indexed": false,
          "internalType": "uint256",
          "name": "",
          "type": "uint256"
        }
      ],
      "name": "RegistrationDone",
      "type": "event"
    },
    {
      "inputs": [
        {
          "internalType": "address",
          "name": "",
          "type": "address"
        }
      ],
      "name": "Roles",
      "outputs": [
        {
          "internalType": "uint256",
          "name": "",
          "type": "uint256"
        }
      ],
      "stateMutability": "view",
      "type": "function",
      "constant": true
    },
    {
      "inputs": [
        {
          "internalType": "string",
          "name": "designation",
          "type": "string"
        }
      ],
      "name": "getLevel",
      "outputs": [
        {
          "internalType": "uint256",
          "name": "",
          "type": "uint256"
        }
      ],
      "stateMutability": "payable",
      "type": "function",
      "payable": true
    },
    {
      "inputs": [
        {
          "internalType": "address",
          "name": "user",
          "type": "address"
        }
      ],
      "name": "DoesExists",
      "outputs": [
        {
          "internalType": "bool",
          "name": "",
          "type": "bool"
        }
      ],
      "stateMutability": "view",
      "type": "function",
      "constant": true
    },
    {
      "inputs": [
        {
          "internalType": "string",
          "name": "designation",
          "type": "string"
        },
        {
          "internalType": "address",
          "name": "user",
          "type": "address"
        }
      ],
      "name": "setRole",
      "outputs": [],
      "stateMutability": "payable",
      "type": "function",
      "payable": true
    },
    {
      "inputs": [
        {
          "internalType": "address",
          "name": "user",
          "type": "address"
        }
      ],
      "name": "returnRole",
      "outputs": [
        {
          "internalType": "uint256",
          "name": "",
          "type": "uint256"
        }
      ],
      "stateMutability": "view",
      "type": "function",
      "constant": true
    }
  ],
  "bytecode": "0x608060405234801561001057600080fd5b5060066000604051610021906100b1565b9081526020016040518091039020819055506004600060405161004390610112565b908152602001604051809103902081905550610127565b600081905092915050565b7f4865616420496e76657374696761746f72000000000000000000000000000000600082015250565b600061009b60118361005a565b91506100a682610065565b601182019050919050565b60006100bc8261008e565b9150819050919050565b7f496e76657374696761746f720000000000000000000000000000000000000000600082015250565b60006100fc600c8361005a565b9150610107826100c6565b600c82019050919050565b600061011d826100ef565b9150819050919050565b610ae0806101366000396000f3fe60806040526004361061004a5760003560e01c80630217264a1461004f57806335e8acfb1461007f5780634cc70a0f146100bc5780638a7c6290146100f9578063cfde189014610136575b600080fd5b610069600480360381019061006491906105f6565b610152565b6040516100769190610658565b60405180910390f35b34801561008b57600080fd5b506100a660048036038101906100a191906106d1565b610179565b6040516100b39190610658565b60405180910390f35b3480156100c857600080fd5b506100e360048036038101906100de91906106d1565b610191565b6040516100f09190610658565b60405180910390f35b34801561010557600080fd5b50610120600480360381019061011b91906106d1565b610229565b60405161012d9190610719565b60405180910390f35b610150600480360381019061014b9190610734565b6102d7565b005b600080826040516101639190610801565b9081526020016040518091039020549050919050565b60016020528060005260406000206000915090505481565b6000600115156101a083610229565b1515146101e2576040517f08c379a00000000000000000000000000000000000000000000000000000000081526004016101d990610875565b60405180910390fd5b600160008373ffffffffffffffffffffffffffffffffffffffff1673ffffffffffffffffffffffffffffffffffffffff168152602001908152602001600020549050919050565b600080600090505b6002805490508110156102cc578273ffffffffffffffffffffffffffffffffffffffff166002828154811061026957610268610895565b5b9060005260206000200160009054906101000a900473ffffffffffffffffffffffffffffffffffffffff1673ffffffffffffffffffffffffffffffffffffffff16036102b95760019150506102d2565b80806102c4906108f3565b915050610231565b50600090505b919050565b600015156102e482610229565b151514610326576040517f08c379a000000000000000000000000000000000000000000000000000000000815260040161031d90610987565b60405180910390fd5b600061033183610152565b11610371576040517f08c379a0000000000000000000000000000000000000000000000000000000008152600401610368906109f3565b60405180910390fd5b61037a82610152565b600160008373ffffffffffffffffffffffffffffffffffffffff1673ffffffffffffffffffffffffffffffffffffffff168152602001908152602001600020819055506002819080600181540180825580915050600190039060005260206000200160009091909190916101000a81548173ffffffffffffffffffffffffffffffffffffffff021916908373ffffffffffffffffffffffffffffffffffffffff1602179055507f9c0eb221526fb70b62525801ad417c3ba7a71a0f5dbae6cb7e9f6d64f776f85d81600160008473ffffffffffffffffffffffffffffffffffffffff1673ffffffffffffffffffffffffffffffffffffffff16815260200190815260200160002054604051610490929190610a6e565b60405180910390a15050565b6000604051905090565b600080fd5b600080fd5b600080fd5b600080fd5b6000601f19601f8301169050919050565b7f4e487b7100000000000000000000000000000000000000000000000000000000600052604160045260246000fd5b610503826104ba565b810181811067ffffffffffffffff82111715610522576105216104cb565b5b80604052505050565b600061053561049c565b905061054182826104fa565b919050565b600067ffffffffffffffff821115610561576105606104cb565b5b61056a826104ba565b9050602081019050919050565b82818337600083830152505050565b600061059961059484610546565b61052b565b9050828152602081018484840111156105b5576105b46104b5565b5b6105c0848285610577565b509392505050565b600082601f8301126105dd576105dc6104b0565b5b81356105ed848260208601610586565b91505092915050565b60006020828403121561060c5761060b6104a6565b5b600082013567ffffffffffffffff81111561062a576106296104ab565b5b610636848285016105c8565b91505092915050565b6000819050919050565b6106528161063f565b82525050565b600060208201905061066d6000830184610649565b92915050565b600073ffffffffffffffffffffffffffffffffffffffff82169050919050565b600061069e82610673565b9050919050565b6106ae81610693565b81146106b957600080fd5b50565b6000813590506106cb816106a5565b92915050565b6000602082840312156106e7576106e66104a6565b5b60006106f5848285016106bc565b91505092915050565b60008115159050919050565b610713816106fe565b82525050565b600060208201905061072e600083018461070a565b92915050565b6000806040838503121561074b5761074a6104a6565b5b600083013567ffffffffffffffff811115610769576107686104ab565b5b610775858286016105c8565b9250506020610786858286016106bc565b9150509250929050565b600081519050919050565b600081905092915050565b60005b838110156107c45780820151818401526020810190506107a9565b60008484015250505050565b60006107db82610790565b6107e5818561079b565b93506107f58185602086016107a6565b80840191505092915050565b600061080d82846107d0565b915081905092915050565b600082825260208201905092915050565b7f55736572206973206e6f74207265676973746572656400000000000000000000600082015250565b600061085f601683610818565b915061086a82610829565b602082019050919050565b6000602082019050818103600083015261088e81610852565b9050919050565b7f4e487b7100000000000000000000000000000000000000000000000000000000600052603260045260246000fd5b7f4e487b7100000000000000000000000000000000000000000000000000000000600052601160045260246000fd5b60006108fe8261063f565b91507fffffffffffffffffffffffffffffffffffffffffffffffffffffffffffffffff82036109305761092f6108c4565b5b600182019050919050565b7f5573657220416c72656164792052656769737465726564000000000000000000600082015250565b6000610971601783610818565b915061097c8261093b565b602082019050919050565b600060208201905081810360008301526109a081610964565b9050919050565b7f496e76616c69642064657369676e6174696f6e00000000000000000000000000600082015250565b60006109dd601383610818565b91506109e8826109a7565b602082019050919050565b60006020820190508181036000830152610a0c816109d0565b9050919050565b7f526567697374726174696f6e20436f6d706c6574656420000000000000000000600082015250565b6000610a49601783610818565b9150610a5482610a13565b602082019050919050565b610a6881610693565b82525050565b60006060820190508181036000830152610a8781610a3c565b9050610a966020830185610a5f565b610aa36040830184610649565b939250505056fea2646970667358221220b05e1f2ce37223edbebde7023e121a118bb4c48e9285319796520b14451810be64736f6c63430008110033",
  "immutableReferences": {},
  "source": "// SPDX-License-Identifier: MIT\r\npragma solidity ^0.8.17;\r\n\r\n// how do i deal with these infinite gas statements \r\n\r\ncontract AssignRole{\r\n    mapping(string => uint) private Levels;\r\n    mapping(address => uint) public Roles; // each address will have a IG level storing is like address : Integrity Level 1/2\r\n    address[] private RegisteredUsers;  // dynamic array of all registered users, to check whether they exists or not\r\n    \r\n    event RegistrationDone(string, address, uint);\r\n    \r\n    constructor(){\r\n        Levels[\"Head Investigator\"] = 6;\r\n        Levels[\"Investigator\"] = 4;\r\n    }\r\n\r\n    function getLevel(string memory designation) public payable returns(uint){\r\n       return (Levels[designation]);\r\n    }\r\n\r\n    function DoesExists (address user) public view returns(bool){\r\n        for(uint i =0; i < RegisteredUsers.length; i++){\r\n            if(RegisteredUsers[i] == user){\r\n                return true;\r\n            }\r\n        }\r\n        return false;\r\n    }\r\n\r\n    function setRole(string memory designation, address user) public payable {\r\n        \r\n        require(DoesExists(user) == false, \"User Already Registered\" );\r\n        require(getLevel(designation)> 0, \"Invalid designation\");\r\n        Roles[user] = getLevel(designation);\r\n        RegisteredUsers.push(user);\r\n        emit RegistrationDone(\"Registration Completed \",user, Roles[user]);\r\n        \r\n    }\r\n    function returnRole(address user) public view returns(uint){\r\n        require(DoesExists(user) == true , \"User is not registered\");\r\n        return Roles[user];\r\n    }\r\n}",
  "sourcePath": "C:\\Users\\Lokesh\\Desktop\\jam\\pro\\contracts\\AssignRole.sol",
  "compiler": {
    "name": "solc",
    "version": "0.8.17+commit.8df45f5f.Emscripten.clang"
  },
  "schemaVersion": "3.4.15",
  "updatedAt": "2023-09-19T18:05:11.318Z",
  "networkType": "ethereum",
  "devdoc": {
    "kind": "dev",
    "methods": {},
    "version": 1
  },
  "userdoc": {
    "kind": "user",
    "methods": {},
    "version": 1
  }
}