{
  "contractName": "BibaRead",
  "abi": [
    {
      "inputs": [
        {
          "internalType": "address",
          "name": "_assignLevel",
          "type": "address"
        },
        {
          "internalType": "address",
          "name": "_assignRole",
          "type": "address"
        }
      ],
      "stateMutability": "nonpayable",
      "type": "constructor"
    },
    {
      "anonymous": false,
      "inputs": [
        {
          "indexed": false,
          "internalType": "string",
          "name": "",
          "type": "string"
        },
        {
          "indexed": false,
          "internalType": "address",
          "name": "",
          "type": "address"
        },
        {
          "indexed": false,
          "internalType": "bytes32",
          "name": "",
          "type": "bytes32"
        }
      ],
      "name": "ReadAllowed",
      "type": "event"
    },
    {
      "inputs": [],
      "name": "evidence",
      "outputs": [
        {
          "internalType": "contract AssignLevel",
          "name": "",
          "type": "address"
        }
      ],
      "stateMutability": "view",
      "type": "function",
      "constant": true
    },
    {
      "inputs": [],
      "name": "user",
      "outputs": [
        {
          "internalType": "contract AssignRole",
          "name": "",
          "type": "address"
        }
      ],
      "stateMutability": "view",
      "type": "function",
      "constant": true
    },
    {
      "inputs": [
        {
          "internalType": "bytes32",
          "name": "key",
          "type": "bytes32"
        },
        {
          "internalType": "address",
          "name": "ad_user",
          "type": "address"
        }
      ],
      "name": "read_allowed",
      "outputs": [
        {
          "internalType": "bool",
          "name": "",
          "type": "bool"
        }
      ],
      "stateMutability": "payable",
      "type": "function",
      "payable": true
    }
  ],
  "bytecode": "0x608060405234801561001057600080fd5b506040516108263803806108268339818101604052810190610032919061011d565b816000806101000a81548173ffffffffffffffffffffffffffffffffffffffff021916908373ffffffffffffffffffffffffffffffffffffffff16021790555080600160006101000a81548173ffffffffffffffffffffffffffffffffffffffff021916908373ffffffffffffffffffffffffffffffffffffffff160217905550505061015d565b600080fd5b600073ffffffffffffffffffffffffffffffffffffffff82169050919050565b60006100ea826100bf565b9050919050565b6100fa816100df565b811461010557600080fd5b50565b600081519050610117816100f1565b92915050565b60008060408385031215610134576101336100ba565b5b600061014285828601610108565b925050602061015385828601610108565b9150509250929050565b6106ba8061016c6000396000f3fe6080604052600436106100345760003560e01c80634f8632ba14610039578063a77e098714610064578063cc9c74101461008f575b600080fd5b34801561004557600080fd5b5061004e6100bf565b60405161005b919061035c565b60405180910390f35b34801561007057600080fd5b506100796100e5565b6040516100869190610398565b60405180910390f35b6100a960048036038101906100a4919061042c565b610109565b6040516100b69190610487565b60405180910390f35b600160009054906101000a900473ffffffffffffffffffffffffffffffffffffffff1681565b60008054906101000a900473ffffffffffffffffffffffffffffffffffffffff1681565b60008060008054906101000a900473ffffffffffffffffffffffffffffffffffffffff1673ffffffffffffffffffffffffffffffffffffffff166377225ea3856040518263ffffffff1660e01b815260040161016591906104b1565b602060405180830381865afa158015610182573d6000803e3d6000fd5b505050506040513d601f19601f820116820180604052508101906101a69190610502565b90506000600160009054906101000a900473ffffffffffffffffffffffffffffffffffffffff1673ffffffffffffffffffffffffffffffffffffffff16634cc70a0f856040518263ffffffff1660e01b8152600401610205919061053e565b602060405180830381865afa158015610222573d6000803e3d6000fd5b505050506040513d601f19601f820116820180604052508101906102469190610502565b905060008282111590506001151581151514610297576040517f08c379a000000000000000000000000000000000000000000000000000000000815260040161028e906105dc565b60405180910390fd5b7f914a47d0b62837fbe404f8576ce267855f7af1d9acca62fea203e70efa7da78c85876040516102c8929190610648565b60405180910390a16001935050505092915050565b600073ffffffffffffffffffffffffffffffffffffffff82169050919050565b6000819050919050565b600061032261031d610318846102dd565b6102fd565b6102dd565b9050919050565b600061033482610307565b9050919050565b600061034682610329565b9050919050565b6103568161033b565b82525050565b6000602082019050610371600083018461034d565b92915050565b600061038282610329565b9050919050565b61039281610377565b82525050565b60006020820190506103ad6000830184610389565b92915050565b600080fd5b6000819050919050565b6103cb816103b8565b81146103d657600080fd5b50565b6000813590506103e8816103c2565b92915050565b60006103f9826102dd565b9050919050565b610409816103ee565b811461041457600080fd5b50565b60008135905061042681610400565b92915050565b60008060408385031215610443576104426103b3565b5b6000610451858286016103d9565b925050602061046285828601610417565b9150509250929050565b60008115159050919050565b6104818161046c565b82525050565b600060208201905061049c6000830184610478565b92915050565b6104ab816103b8565b82525050565b60006020820190506104c660008301846104a2565b92915050565b6000819050919050565b6104df816104cc565b81146104ea57600080fd5b50565b6000815190506104fc816104d6565b92915050565b600060208284031215610518576105176103b3565b5b6000610526848285016104ed565b91505092915050565b610538816103ee565b82525050565b6000602082019050610553600083018461052f565b92915050565b600082825260208201905092915050565b7f55736572206973206e6f7420617574686f72697a656420746f2072656164206560008201527f766964656e636500000000000000000000000000000000000000000000000000602082015250565b60006105c6602783610559565b91506105d18261056a565b604082019050919050565b600060208201905081810360008301526105f5816105b9565b9050919050565b7f557365722068617320726561642065766964656e636500000000000000000000600082015250565b6000610632601683610559565b915061063d826105fc565b602082019050919050565b6000606082019050818103600083015261066181610625565b9050610670602083018561052f565b61067d60408301846104a2565b939250505056fea2646970667358221220b233ac09201bbeb438b43b8be82c296cc605ca294a0d233ede500dd211bb2c8f64736f6c63430008110033",
  "immutableReferences": {},
  "source": "// SPDX-License-Identifier: MIT\r\npragma solidity ^0.8.17;\r\n\r\nimport \"./AssignRole.sol\";\r\nimport \"./AssignLevel.sol\";\r\n\r\ncontract BibaRead{\r\n   AssignLevel public evidence; // contract instance\r\n   AssignRole public  user; \r\n\r\n   mapping (address => bytes32) ReadEvidence;  // keep track of which user read which evidence, one user can read multiple evidences so like is this needed\r\n\r\n   event ReadAllowed(string, address, bytes32); // event for blockchain\r\n   \r\n   constructor( address _assignLevel, address _assignRole){\r\n    evidence = AssignLevel(_assignLevel);\r\n    user = AssignRole(_assignRole);\r\n   }\r\n\r\n   function read_allowed(bytes32 key, address ad_user) public payable returns (bool){\r\n    uint L = evidence.returnLevel(key);\r\n    uint R = user.returnRole(ad_user);\r\n\r\n    bool val = (R<=L);\r\n    require(val == true, \"User is not authorized to read evidence\");\r\n    emit ReadAllowed(\"User has read evidence\", ad_user, key);\r\n    return true;\r\n   }\r\n\r\n}",
  "sourcePath": "C:\\Users\\Lokesh\\Desktop\\jam\\pro\\contracts\\BibaRead.sol",
  "compiler": {
    "name": "solc",
    "version": "0.8.17+commit.8df45f5f.Emscripten.clang"
  },
  "schemaVersion": "3.4.15",
  "updatedAt": "2023-09-19T18:05:10.661Z",
  "networkType": "ethereum",
  "devdoc": {
    "kind": "dev",
    "methods": {},
    "version": 1
  },
  "userdoc": {
    "kind": "user",
    "methods": {},
    "version": 1
  }
}