{
  "contractName": "BibaAppend",
  "abi": [
    {
      "inputs": [
        {
          "internalType": "address",
          "name": "_assignLevel",
          "type": "address"
        },
        {
          "internalType": "address",
          "name": "_assignRole",
          "type": "address"
        }
      ],
      "stateMutability": "nonpayable",
      "type": "constructor"
    },
    {
      "anonymous": false,
      "inputs": [
        {
          "indexed": false,
          "internalType": "string",
          "name": "",
          "type": "string"
        },
        {
          "indexed": false,
          "internalType": "address",
          "name": "",
          "type": "address"
        },
        {
          "indexed": false,
          "internalType": "bytes32",
          "name": "",
          "type": "bytes32"
        },
        {
          "indexed": false,
          "internalType": "bytes32",
          "name": "",
          "type": "bytes32"
        }
      ],
      "name": "AppendAllowed",
      "type": "event"
    },
    {
      "inputs": [
        {
          "internalType": "bytes32",
          "name": "",
          "type": "bytes32"
        },
        {
          "internalType": "uint256",
          "name": "",
          "type": "uint256"
        }
      ],
      "name": "AppendedEvidence",
      "outputs": [
        {
          "internalType": "bytes32",
          "name": "",
          "type": "bytes32"
        }
      ],
      "stateMutability": "view",
      "type": "function",
      "constant": true
    },
    {
      "inputs": [
        {
          "internalType": "bytes32",
          "name": "",
          "type": "bytes32"
        }
      ],
      "name": "TrackerMapping",
      "outputs": [
        {
          "internalType": "uint256",
          "name": "",
          "type": "uint256"
        }
      ],
      "stateMutability": "view",
      "type": "function",
      "constant": true
    },
    {
      "inputs": [],
      "name": "evidence",
      "outputs": [
        {
          "internalType": "contract AssignLevel",
          "name": "",
          "type": "address"
        }
      ],
      "stateMutability": "view",
      "type": "function",
      "constant": true
    },
    {
      "inputs": [],
      "name": "user",
      "outputs": [
        {
          "internalType": "contract AssignRole",
          "name": "",
          "type": "address"
        }
      ],
      "stateMutability": "view",
      "type": "function",
      "constant": true
    },
    {
      "inputs": [
        {
          "internalType": "bytes32",
          "name": "key",
          "type": "bytes32"
        }
      ],
      "name": "returnTimes",
      "outputs": [
        {
          "internalType": "uint256",
          "name": "",
          "type": "uint256"
        }
      ],
      "stateMutability": "view",
      "type": "function",
      "constant": true
    },
    {
      "inputs": [
        {
          "internalType": "bytes32",
          "name": "key",
          "type": "bytes32"
        },
        {
          "internalType": "address",
          "name": "ad_user",
          "type": "address"
        },
        {
          "internalType": "bytes32",
          "name": "key_of_new",
          "type": "bytes32"
        },
        {
          "internalType": "string",
          "name": "qua",
          "type": "string"
        }
      ],
      "name": "append_allowed",
      "outputs": [
        {
          "internalType": "bool",
          "name": "",
          "type": "bool"
        }
      ],
      "stateMutability": "payable",
      "type": "function",
      "payable": true
    }
  ],
  "bytecode": "0x608060405234801561001057600080fd5b50604051610e18380380610e188339818101604052810190610032919061011d565b816000806101000a81548173ffffffffffffffffffffffffffffffffffffffff021916908373ffffffffffffffffffffffffffffffffffffffff16021790555080600160006101000a81548173ffffffffffffffffffffffffffffffffffffffff021916908373ffffffffffffffffffffffffffffffffffffffff160217905550505061015d565b600080fd5b600073ffffffffffffffffffffffffffffffffffffffff82169050919050565b60006100ea826100bf565b9050919050565b6100fa816100df565b811461010557600080fd5b50565b600081519050610117816100f1565b92915050565b60008060408385031215610134576101336100ba565b5b600061014285828601610108565b925050602061015385828601610108565b9150509250929050565b610cac8061016c6000396000f3fe6080604052600436106100555760003560e01c80632f4d45301461005a5780634b7fb0fe146100975780634f8632ba146100d457806353ee6742146100ff578063a77e09871461013c578063fed5818b14610167575b600080fd5b34801561006657600080fd5b50610081600480360381019061007c9190610579565b610197565b60405161008e91906105bf565b60405180910390f35b3480156100a357600080fd5b506100be60048036038101906100b99190610579565b6101af565b6040516100cb91906105bf565b60405180910390f35b3480156100e057600080fd5b506100e96101cc565b6040516100f69190610659565b60405180910390f35b34801561010b57600080fd5b50610126600480360381019061012191906106a0565b6101f2565b60405161013391906106ef565b60405180910390f35b34801561014857600080fd5b50610151610217565b60405161015e919061072b565b60405180910390f35b610181600480360381019061017c91906108ca565b61023b565b60405161018e9190610968565b60405180910390f35b60036020528060005260406000206000915090505481565b600060036000838152602001908152602001600020549050919050565b600160009054906101000a900473ffffffffffffffffffffffffffffffffffffffff1681565b6002602052816000526040600020602052806000526040600020600091509150505481565b60008054906101000a900473ffffffffffffffffffffffffffffffffffffffff1681565b60008060008054906101000a900473ffffffffffffffffffffffffffffffffffffffff1673ffffffffffffffffffffffffffffffffffffffff166377225ea3876040518263ffffffff1660e01b815260040161029791906106ef565b602060405180830381865afa1580156102b4573d6000803e3d6000fd5b505050506040513d601f19601f820116820180604052508101906102d89190610998565b90506000600160009054906101000a900473ffffffffffffffffffffffffffffffffffffffff1673ffffffffffffffffffffffffffffffffffffffff16634cc70a0f876040518263ffffffff1660e01b815260040161033791906109d4565b602060405180830381865afa158015610354573d6000803e3d6000fd5b505050506040513d601f19601f820116820180604052508101906103789190610998565b9050600082821015905060011515811515146103c9576040517f08c379a00000000000000000000000000000000000000000000000000000000081526004016103c090610a72565b60405180910390fd5b60006103d4896101af565b905060006001826103e59190610ac1565b905080600360008c81526020019081526020016000208190555060008a89604051602001610414929190610b16565b60405160208183030381529060405280519060200120905060008054906101000a900473ffffffffffffffffffffffffffffffffffffffff1673ffffffffffffffffffffffffffffffffffffffff1663ff1631cb89836040518363ffffffff1660e01b8152600401610487929190610bb0565b600060405180830381600087803b1580156104a157600080fd5b505af11580156104b5573d6000803e3d6000fd5b5050505080600260008d81526020019081526020016000206000848152602001908152602001600020819055507ffc17de64b054ad1a958ee831f3de41b230180f4683f1c674b292244faef113798a8c8360405161051593929190610c2c565b60405180910390a160019650505050505050949350505050565b6000604051905090565b600080fd5b600080fd5b6000819050919050565b61055681610543565b811461056157600080fd5b50565b6000813590506105738161054d565b92915050565b60006020828403121561058f5761058e610539565b5b600061059d84828501610564565b91505092915050565b6000819050919050565b6105b9816105a6565b82525050565b60006020820190506105d460008301846105b0565b92915050565b600073ffffffffffffffffffffffffffffffffffffffff82169050919050565b6000819050919050565b600061061f61061a610615846105da565b6105fa565b6105da565b9050919050565b600061063182610604565b9050919050565b600061064382610626565b9050919050565b61065381610638565b82525050565b600060208201905061066e600083018461064a565b92915050565b61067d816105a6565b811461068857600080fd5b50565b60008135905061069a81610674565b92915050565b600080604083850312156106b7576106b6610539565b5b60006106c585828601610564565b92505060206106d68582860161068b565b9150509250929050565b6106e981610543565b82525050565b600060208201905061070460008301846106e0565b92915050565b600061071582610626565b9050919050565b6107258161070a565b82525050565b6000602082019050610740600083018461071c565b92915050565b6000610751826105da565b9050919050565b61076181610746565b811461076c57600080fd5b50565b60008135905061077e81610758565b92915050565b600080fd5b600080fd5b6000601f19601f8301169050919050565b7f4e487b7100000000000000000000000000000000000000000000000000000000600052604160045260246000fd5b6107d78261078e565b810181811067ffffffffffffffff821117156107f6576107f561079f565b5b80604052505050565b600061080961052f565b905061081582826107ce565b919050565b600067ffffffffffffffff8211156108355761083461079f565b5b61083e8261078e565b9050602081019050919050565b82818337600083830152505050565b600061086d6108688461081a565b6107ff565b90508281526020810184848401111561088957610888610789565b5b61089484828561084b565b509392505050565b600082601f8301126108b1576108b0610784565b5b81356108c184826020860161085a565b91505092915050565b600080600080608085870312156108e4576108e3610539565b5b60006108f287828801610564565b94505060206109038782880161076f565b935050604061091487828801610564565b925050606085013567ffffffffffffffff8111156109355761093461053e565b5b6109418782880161089c565b91505092959194509250565b60008115159050919050565b6109628161094d565b82525050565b600060208201905061097d6000830184610959565b92915050565b60008151905061099281610674565b92915050565b6000602082840312156109ae576109ad610539565b5b60006109bc84828501610983565b91505092915050565b6109ce81610746565b82525050565b60006020820190506109e960008301846109c5565b92915050565b600082825260208201905092915050565b7f55736572206973206e6f7420617574686f72697a656420746f20617070656e6460008201527f20746f2065766964656e63650000000000000000000000000000000000000000602082015250565b6000610a5c602c836109ef565b9150610a6782610a00565b604082019050919050565b60006020820190508181036000830152610a8b81610a4f565b9050919050565b7f4e487b7100000000000000000000000000000000000000000000000000000000600052601160045260246000fd5b6000610acc826105a6565b9150610ad7836105a6565b9250828201905080821115610aef57610aee610a92565b5b92915050565b6000819050919050565b610b10610b0b82610543565b610af5565b82525050565b6000610b228285610aff565b602082019150610b328284610aff565b6020820191508190509392505050565b600081519050919050565b60005b83811015610b6b578082015181840152602081019050610b50565b60008484015250505050565b6000610b8282610b42565b610b8c81856109ef565b9350610b9c818560208601610b4d565b610ba58161078e565b840191505092915050565b60006040820190508181036000830152610bca8185610b77565b9050610bd960208301846106e0565b9392505050565b7f557365722068617320617070656e64656420746f2065766964656e6365000000600082015250565b6000610c16601d836109ef565b9150610c2182610be0565b602082019050919050565b60006080820190508181036000830152610c4581610c09565b9050610c5460208301866109c5565b610c6160408301856106e0565b610c6e60608301846106e0565b94935050505056fea264697066735822122071382f945b8a6f6c797ae959b13fdaba37ad317e2ff5a34fe0c74624b8761a1464736f6c63430008110033",
  "immutableReferences": {},
  "source": "// SPDX-License-Identifier: MIT\r\npragma solidity ^0.8.17;\r\n\r\nimport \"./AssignRole.sol\";\r\nimport \"./AssignLevel.sol\";\r\n\r\ncontract BibaAppend{\r\n   AssignLevel public evidence; // contract instance\r\n   AssignRole public  user;\r\n   \r\n   mapping (bytes32 => mapping(uint => bytes32)) public AppendedEvidence;  // keep track of which evidence was appended to, but an evidence can be appended to multiple times\r\n   \r\n   //find a new structure for this? nested mapping (bytes32 (og_key) => mapping(uint => newhash)) \r\n   //use another mapping to keep track of how many times a evidence was appended to \r\n   \r\n   mapping (bytes32 =>uint) public TrackerMapping; // keep track of how many times and evidence was appended to \r\n   \r\n   //Evidence public evidence;\r\n   event AppendAllowed(string, address, bytes32, bytes32); // event for blockchain\r\n   \r\n   constructor( address _assignLevel, address _assignRole){\r\n    evidence = AssignLevel(_assignLevel);\r\n    user = AssignRole(_assignRole);\r\n    //create = Evidence()\r\n   }\r\n\r\n   function returnTimes(bytes32 key) public view returns(uint){  // return number of times an evidence was appended to\r\n      return TrackerMapping[key];\r\n   }\r\n\r\n   function append_allowed(bytes32 key, address ad_user, bytes32 key_of_new, string memory qua) public payable returns (bool){\r\n    uint L = evidence.returnLevel(key);\r\n    uint R = user.returnRole(ad_user);\r\n    bool val = (R>=L);\r\n    \r\n    require(val == true, \"User is not authorized to append to evidence\");\r\n    \r\n    uint times = returnTimes(key); // find how many times the og evidence was appended to\r\n    uint ntime = times+1;\r\n    TrackerMapping[key] = ntime; // update how many times the orginal evidenece was appended to\r\n    \r\n    bytes32 newhash  = keccak256(abi.encodePacked(key,key_of_new)); // calculate new hash\r\n    evidence.setLevel(qua, newhash); // create a new evidence with new founf evidence related to og evidence\r\n    \r\n    AppendedEvidence[key][ntime] = newhash; // finally add the appended evidence in the nested mapping \r\n    emit AppendAllowed(\"User has appended to evidence\", ad_user, key, newhash);\r\n    \r\n    return true;\r\n   }\r\n\r\n}",
  "sourcePath": "C:\\Users\\Lokesh\\Desktop\\jam\\pro\\contracts\\BibaAppend.sol",
  "compiler": {
    "name": "solc",
    "version": "0.8.17+commit.8df45f5f.Emscripten.clang"
  },
  "schemaVersion": "3.4.15",
  "updatedAt": "2023-09-19T18:05:11.341Z",
  "networkType": "ethereum",
  "devdoc": {
    "kind": "dev",
    "methods": {},
    "version": 1
  },
  "userdoc": {
    "kind": "user",
    "methods": {},
    "version": 1
  }
}