{
  "contractName": "Evidence",
  "abi": [
    {
      "inputs": [
        {
          "internalType": "address",
          "name": "_levelContract",
          "type": "address"
        }
      ],
      "stateMutability": "nonpayable",
      "type": "constructor"
    },
    {
      "inputs": [],
      "name": "levelContract",
      "outputs": [
        {
          "internalType": "contract AssignLevel",
          "name": "",
          "type": "address"
        }
      ],
      "stateMutability": "view",
      "type": "function",
      "constant": true
    },
    {
      "inputs": [
        {
          "internalType": "string",
          "name": "qualification",
          "type": "string"
        },
        {
          "internalType": "bytes32",
          "name": "evidence_hash",
          "type": "bytes32"
        }
      ],
      "name": "_register_evidence",
      "outputs": [],
      "stateMutability": "payable",
      "type": "function",
      "payable": true
    }
  ],
  "bytecode": "0x608060405234801561001057600080fd5b506040516105bb3803806105bb833981810160405281019061003291906100db565b806000806101000a81548173ffffffffffffffffffffffffffffffffffffffff021916908373ffffffffffffffffffffffffffffffffffffffff16021790555050610108565b600080fd5b600073ffffffffffffffffffffffffffffffffffffffff82169050919050565b60006100a88261007d565b9050919050565b6100b88161009d565b81146100c357600080fd5b50565b6000815190506100d5816100af565b92915050565b6000602082840312156100f1576100f0610078565b5b60006100ff848285016100c6565b91505092915050565b6104a4806101176000396000f3fe6080604052600436106100295760003560e01c806315d892ee1461002e5780635217f17c14610059575b600080fd5b34801561003a57600080fd5b50610043610075565b60405161005091906101a9565b60405180910390f35b610073600480360381019061006e9190610354565b610099565b005b60008054906101000a900473ffffffffffffffffffffffffffffffffffffffff1681565b60008054906101000a900473ffffffffffffffffffffffffffffffffffffffff1673ffffffffffffffffffffffffffffffffffffffff1663ff1631cb83836040518363ffffffff1660e01b81526004016100f492919061043e565b600060405180830381600087803b15801561010e57600080fd5b505af1158015610122573d6000803e3d6000fd5b505050505050565b600073ffffffffffffffffffffffffffffffffffffffff82169050919050565b6000819050919050565b600061016f61016a6101658461012a565b61014a565b61012a565b9050919050565b600061018182610154565b9050919050565b600061019382610176565b9050919050565b6101a381610188565b82525050565b60006020820190506101be600083018461019a565b92915050565b6000604051905090565b600080fd5b600080fd5b600080fd5b600080fd5b6000601f19601f8301169050919050565b7f4e487b7100000000000000000000000000000000000000000000000000000000600052604160045260246000fd5b61022b826101e2565b810181811067ffffffffffffffff8211171561024a576102496101f3565b5b80604052505050565b600061025d6101c4565b90506102698282610222565b919050565b600067ffffffffffffffff821115610289576102886101f3565b5b610292826101e2565b9050602081019050919050565b82818337600083830152505050565b60006102c16102bc8461026e565b610253565b9050828152602081018484840111156102dd576102dc6101dd565b5b6102e884828561029f565b509392505050565b600082601f830112610305576103046101d8565b5b81356103158482602086016102ae565b91505092915050565b6000819050919050565b6103318161031e565b811461033c57600080fd5b50565b60008135905061034e81610328565b92915050565b6000806040838503121561036b5761036a6101ce565b5b600083013567ffffffffffffffff811115610389576103886101d3565b5b610395858286016102f0565b92505060206103a68582860161033f565b9150509250929050565b600081519050919050565b600082825260208201905092915050565b60005b838110156103ea5780820151818401526020810190506103cf565b60008484015250505050565b6000610401826103b0565b61040b81856103bb565b935061041b8185602086016103cc565b610424816101e2565b840191505092915050565b6104388161031e565b82525050565b6000604082019050818103600083015261045881856103f6565b9050610467602083018461042f565b939250505056fea26469706673582212202e0e5c5f362ba49e7329fb3425f855e4e448e9ab1b480e531f5d393169cb0a7064736f6c63430008110033",
  "immutableReferences": {},
  "source": "// SPDX-License-Identifier: MIT\r\npragma solidity ^0.8.17;\r\n\r\nimport \"./AssignLevel.sol\";\r\n\r\ncontract Evidence{\r\n    AssignLevel public levelContract;\r\n    uint Level; // Integrity level\r\n    string Description; // Decsription\r\n\r\n    constructor (address _levelContract){\r\n        levelContract = AssignLevel(_levelContract); // instance creation\r\n    }\r\n\r\n    function _register_evidence(string memory qualification, bytes32 evidence_hash) public payable{\r\n        levelContract.setLevel(qualification, evidence_hash); // complete registeration of evidence , store the level and hash of evidence \r\n    }\r\n}",
  "sourcePath": "C:\\Users\\Lokesh\\Desktop\\jam\\pro\\contracts\\Evidence.sol",
  "compiler": {
    "name": "solc",
    "version": "0.8.17+commit.8df45f5f.Emscripten.clang"
  },
  "schemaVersion": "3.4.15",
  "updatedAt": "2023-09-19T18:05:09.686Z",
  "networkType": "ethereum",
  "devdoc": {
    "kind": "dev",
    "methods": {},
    "version": 1
  },
  "userdoc": {
    "kind": "user",
    "methods": {},
    "version": 1
  }
}