{
  "contractName": "AssignLevel",
  "abi": [
    {
      "inputs": [],
      "stateMutability": "nonpayable",
      "type": "constructor"
    },
    {
      "anonymous": false,
      "inputs": [
        {
          "indexed": false,
          "internalType": "string",
          "name": "",
          "type": "string"
        }
      ],
      "name": "EvidenceAssignedLevel",
      "type": "event"
    },
    {
      "anonymous": false,
      "inputs": [
        {
          "indexed": false,
          "internalType": "string",
          "name": "",
          "type": "string"
        },
        {
          "indexed": false,
          "internalType": "bytes32",
          "name": "",
          "type": "bytes32"
        },
        {
          "indexed": false,
          "internalType": "uint256",
          "name": "",
          "type": "uint256"
        }
      ],
      "name": "EvidenceRegistered",
      "type": "event"
    },
    {
      "inputs": [
        {
          "internalType": "bytes32",
          "name": "",
          "type": "bytes32"
        }
      ],
      "name": "Objects",
      "outputs": [
        {
          "internalType": "uint256",
          "name": "",
          "type": "uint256"
        }
      ],
      "stateMutability": "view",
      "type": "function",
      "constant": true
    },
    {
      "inputs": [
        {
          "internalType": "bytes32",
          "name": "key",
          "type": "bytes32"
        }
      ],
      "name": "DoesExists",
      "outputs": [
        {
          "internalType": "bool",
          "name": "",
          "type": "bool"
        }
      ],
      "stateMutability": "view",
      "type": "function",
      "constant": true
    },
    {
      "inputs": [
        {
          "internalType": "bytes32",
          "name": "key",
          "type": "bytes32"
        }
      ],
      "name": "isAssigned",
      "outputs": [
        {
          "internalType": "bool",
          "name": "",
          "type": "bool"
        }
      ],
      "stateMutability": "view",
      "type": "function",
      "constant": true
    },
    {
      "inputs": [
        {
          "internalType": "bytes32",
          "name": "key",
          "type": "bytes32"
        }
      ],
      "name": "registerObj",
      "outputs": [],
      "stateMutability": "payable",
      "type": "function",
      "payable": true
    },
    {
      "inputs": [
        {
          "internalType": "bytes32",
          "name": "key",
          "type": "bytes32"
        }
      ],
      "name": "setlevel",
      "outputs": [],
      "stateMutability": "payable",
      "type": "function",
      "payable": true
    },
    {
      "inputs": [
        {
          "internalType": "bytes32",
          "name": "key",
          "type": "bytes32"
        }
      ],
      "name": "returnLevel",
      "outputs": [
        {
          "internalType": "uint256",
          "name": "",
          "type": "uint256"
        }
      ],
      "stateMutability": "view",
      "type": "function",
      "constant": true
    },
    {
      "inputs": [
        {
          "internalType": "bytes32",
          "name": "key",
          "type": "bytes32"
        }
      ],
      "name": "returnqualifiction",
      "outputs": [
        {
          "internalType": "string",
          "name": "out",
          "type": "string"
        }
      ],
      "stateMutability": "view",
      "type": "function",
      "constant": true
    }
  ],
  "bytecode": "0x60806040523480156200001157600080fd5b506040518060400160405280600781526020017f4365727461696e00000000000000000000000000000000000000000000000000815250600080600781526020019081526020016000209081620000699190620004fa565b506040518060400160405280600e81526020017f416c6d6f7374204365727461696e000000000000000000000000000000000000815250600080600681526020019081526020016000209081620000c19190620004fa565b506040518060400160405280600881526020017f50726f6261626c65000000000000000000000000000000000000000000000000815250600080600581526020019081526020016000209081620001199190620004fa565b506040518060400160405280601281526020017f536f6d657768617420556e6365727461696e0000000000000000000000000000815250600080600481526020019081526020016000209081620001719190620004fa565b506040518060400160405280601081526020017f486967686c7920556e6365727461696e00000000000000000000000000000000815250600080600381526020019081526020016000209081620001c99190620004fa565b506040518060400160405280600881526020017f506f737369626c65000000000000000000000000000000000000000000000000815250600080600281526020019081526020016000209081620002219190620004fa565b506040518060400160405280600981526020017f496e636f72726563740000000000000000000000000000000000000000000000815250600080600181526020019081526020016000209081620002799190620004fa565b50620005e1565b600081519050919050565b7f4e487b7100000000000000000000000000000000000000000000000000000000600052604160045260246000fd5b7f4e487b7100000000000000000000000000000000000000000000000000000000600052602260045260246000fd5b600060028204905060018216806200030257607f821691505b602082108103620003185762000317620002ba565b5b50919050565b60008190508160005260206000209050919050565b60006020601f8301049050919050565b600082821b905092915050565b600060088302620003827fffffffffffffffffffffffffffffffffffffffffffffffffffffffffffffffff8262000343565b6200038e868362000343565b95508019841693508086168417925050509392505050565b6000819050919050565b6000819050919050565b6000620003db620003d5620003cf84620003a6565b620003b0565b620003a6565b9050919050565b6000819050919050565b620003f783620003ba565b6200040f6200040682620003e2565b84845462000350565b825550505050565b600090565b6200042662000417565b62000433818484620003ec565b505050565b5b818110156200045b576200044f6000826200041c565b60018101905062000439565b5050565b601f821115620004aa5762000474816200031e565b6200047f8462000333565b810160208510156200048f578190505b620004a76200049e8562000333565b83018262000438565b50505b505050565b600082821c905092915050565b6000620004cf60001984600802620004af565b1980831691505092915050565b6000620004ea8383620004bc565b9150826002028217905092915050565b620005058262000280565b67ffffffffffffffff8111156200052157620005206200028b565b5b6200052d8254620002e9565b6200053a8282856200045f565b600060209050601f8311600181146200057257600084156200055d578287015190505b620005698582620004dc565b865550620005d9565b601f19841662000582866200031e565b60005b82811015620005ac5784890151825560018201915060208501945060208101905062000585565b86831015620005cc5784890151620005c8601f891682620004bc565b8355505b6001600288020188555050505b505050505050565b610bab80620005f16000396000f3fe6080604052600436106100705760003560e01c806377225ea31161004e57806377225ea3146100ea57806394b2bec514610127578063c520db4b14610164578063f8d7f313146101a157610070565b80630b181f1c1461007557806371e19655146100b257806372929832146100ce575b600080fd5b34801561008157600080fd5b5061009c60048036038101906100979190610625565b6101de565b6040516100a9919061066b565b60405180910390f35b6100cc60048036038101906100c79190610625565b6101f6565b005b6100e860048036038101906100e39190610625565b6102bd565b005b3480156100f657600080fd5b50610111600480360381019061010c9190610625565b6103a8565b60405161011e919061066b565b60405180910390f35b34801561013357600080fd5b5061014e60048036038101906101499190610625565b61041a565b60405161015b9190610716565b60405180910390f35b34801561017057600080fd5b5061018b60048036038101906101869190610625565b610526565b6040516101989190610753565b60405180910390f35b3480156101ad57600080fd5b506101c860048036038101906101c39190610625565b610588565b6040516101d59190610753565b60405180910390f35b60016020528060005260406000206000915090505481565b6000151561020382610588565b151514610245576040517f08c379a000000000000000000000000000000000000000000000000000000000815260040161023c906107ba565b60405180910390fd5b60028190806001815401808255809150506001900390600052602060002001600090919091909150557f6211c9c494c8794dc38d069e18d67cb0d9f8153377af5b9e74ab4bee3e3b5a0b8160016000848152602001908152602001600020546040516102b2929190610835565b60405180910390a150565b600015156102ca82610526565b15151461030c576040517f08c379a0000000000000000000000000000000000000000000000000000000008152600401610303906108bd565b60405180910390fd5b600060016007600380549050610322919061090c565b61032c919061096c565b905080600160008481526020019081526020016000208190555060038290806001815401808255809150506001900390600052602060002001600090919091909150557f20e360db6cf912d4e99c1339a5895a5b112e31bb1fed9ab08b61c507bb149b4960405161039c90610a12565b60405180910390a15050565b6000600115156103b783610588565b1515146103f9576040517f08c379a00000000000000000000000000000000000000000000000000000000081526004016103f090610a7e565b60405180910390fd5b60006001600084815260200190815260200160002054905080915050919050565b60606001151561042983610588565b15151461046b576040517f08c379a000000000000000000000000000000000000000000000000000000000815260040161046290610a7e565b60405180910390fd5b60006001600084815260200190815260200160002054905060008082815260200190815260200160002080546104a090610acd565b80601f01602080910402602001604051908101604052809291908181526020018280546104cc90610acd565b80156105195780601f106104ee57610100808354040283529160200191610519565b820191906000526020600020905b8154815290600101906020018083116104fc57829003601f168201915b5050505050915050919050565b600080600090505b60038054905081101561057d5782600382815481106105505761054f610afe565b5b90600052602060002001540361056a576001915050610583565b808061057590610b2d565b91505061052e565b50600090505b919050565b600080600090505b6002805490508110156105df5782600282815481106105b2576105b1610afe565b5b9060005260206000200154036105cc5760019150506105e5565b80806105d790610b2d565b915050610590565b50600090505b919050565b600080fd5b6000819050919050565b610602816105ef565b811461060d57600080fd5b50565b60008135905061061f816105f9565b92915050565b60006020828403121561063b5761063a6105ea565b5b600061064984828501610610565b91505092915050565b6000819050919050565b61066581610652565b82525050565b6000602082019050610680600083018461065c565b92915050565b600081519050919050565b600082825260208201905092915050565b60005b838110156106c05780820151818401526020810190506106a5565b60008484015250505050565b6000601f19601f8301169050919050565b60006106e882610686565b6106f28185610691565b93506107028185602086016106a2565b61070b816106cc565b840191505092915050565b6000602082019050818103600083015261073081846106dd565b905092915050565b60008115159050919050565b61074d81610738565b82525050565b60006020820190506107686000830184610744565b92915050565b7f45766964656e636520616c726561647920616464656400000000000000000000600082015250565b60006107a4601683610691565b91506107af8261076e565b602082019050919050565b600060208201905081810360008301526107d381610797565b9050919050565b7f45766964656e6365205265676973746572656400000000000000000000000000600082015250565b6000610810601383610691565b915061081b826107da565b602082019050919050565b61082f816105ef565b82525050565b6000606082019050818103600083015261084e81610803565b905061085d6020830185610826565b61086a604083018461065c565b9392505050565b7f45766964656e636520616c72656164792061737369676e6564206c6576656c00600082015250565b60006108a7601f83610691565b91506108b282610871565b602082019050919050565b600060208201905081810360008301526108d68161089a565b9050919050565b7f4e487b7100000000000000000000000000000000000000000000000000000000600052601260045260246000fd5b600061091782610652565b915061092283610652565b925082610932576109316108dd565b5b828206905092915050565b7f4e487b7100000000000000000000000000000000000000000000000000000000600052601160045260246000fd5b600061097782610652565b915061098283610652565b925082820190508082111561099a5761099961093d565b5b92915050565b7f45766964656e6365206173206265656e2061737369676e65642061206c65766560008201527f6c00000000000000000000000000000000000000000000000000000000000000602082015250565b60006109fc602183610691565b9150610a07826109a0565b604082019050919050565b60006020820190508181036000830152610a2b816109ef565b9050919050565b7f4f626a65637420646f6573206e6f742065786973747300000000000000000000600082015250565b6000610a68601683610691565b9150610a7382610a32565b602082019050919050565b60006020820190508181036000830152610a9781610a5b565b9050919050565b7f4e487b7100000000000000000000000000000000000000000000000000000000600052602260045260246000fd5b60006002820490506001821680610ae557607f821691505b602082108103610af857610af7610a9e565b5b50919050565b7f4e487b7100000000000000000000000000000000000000000000000000000000600052603260045260246000fd5b6000610b3882610652565b91507fffffffffffffffffffffffffffffffffffffffffffffffffffffffffffffffff8203610b6a57610b6961093d565b5b60018201905091905056fea26469706673582212202c76791ca31eaa2f32709cc61aad7be4aedf3eb11f104573c14e317971362e1864736f6c63430008110033",
  "immutableReferences": {},
  "source": "// SPDX-License-Identifier: MIT\r\npragma solidity ^0.8.17;\r\n// this is for objects\r\ncontract AssignLevel{\r\n    mapping(uint => string) private Levels;  // mapping for assinging levels \r\n    // maps do not allow duplicate keys but key-value pair will be overwritten  \r\n    mapping(bytes32 => uint) public Objects; // only hash of og evidence is stored; since hash is unique there are no chances of duplicacy   \r\n    bytes32[] private Current_Evi; // evidence which have been added but not assigned a level\r\n    bytes32[] private Regis_Evi; // evidence which have been assigned a level\r\n    // EVENTS\r\n    event EvidenceRegistered(string, bytes32, uint);\r\n    event EvidenceAssignedLevel(string);\r\n    constructor(){  // casey's scaling  will start this from 1 to 7 cuz map allocates zero value to  all possible keys, // NO NEED TO MODIFY CASEY'S SCALING HERE BUT STILL DID\r\n        //so even if the qualification is not valid it will have a level of 0\r\n        Levels[7] = \"Certain\";\r\n        Levels[6] = \"Almost Certain\";\r\n        Levels[5] = \"Probable\";\r\n        Levels[4] = \"Somewhat Uncertain\";\r\n        Levels[3] = \"Highly Uncertain\";\r\n        Levels[2] = \"Possible\";\r\n        Levels[1] = \"Incorrect\";\r\n    }\r\n    function DoesExists (bytes32 key) public view returns(bool){  // check if evidence exists , high gas requirement , but it eezz what it eez \r\n        for(uint i =0; i<Current_Evi.length; i++){\r\n            if(Current_Evi[i] == key){\r\n                return true; \r\n            }\r\n        }\r\n        return false;\r\n    }\r\n    function isAssigned(bytes32 key)public view returns(bool) {  // check if evidence has been assigned a level or not \r\n        for(uint i =0; i<Regis_Evi.length; i++){\r\n            if(Regis_Evi[i] == key){\r\n                return true; \r\n            }\r\n        }\r\n        return false;\r\n        \r\n    }\r\n\r\n    function registerObj(bytes32 key) public payable{ // check for authorization in evidence contract\r\n        require(DoesExists(key) == false, \"Evidence already added\" );\r\n        //require(getLevel(qualification)> 0, \"Invalid qualification\";\r\n        //Objects[key] = calculateLevel(qualification);  // meta data is qualification\r\n        Current_Evi.push(key);\r\n        emit EvidenceRegistered(\"Evidence Registered\", key, Objects[key]);\r\n    }\r\n\r\n    function setlevel(bytes32 key) public payable {\r\n        require (isAssigned(key) == false, \"Evidence already assigned level\");\r\n        uint level=(Regis_Evi.length % 7)+1;\r\n        Objects[key] = level;\r\n        Regis_Evi.push(key);\r\n        emit EvidenceAssignedLevel(\"Evidence as been assigned a level\");\r\n       \r\n    }\r\n\r\n    function returnLevel(bytes32 key) public view returns(uint){ // for backend side \r\n        require(DoesExists(key) == true, \"Object does not exists\");\r\n        uint lvl = Objects[key];\r\n        return lvl;\r\n    }\r\n\r\n    function returnqualifiction(bytes32 key) public view returns(string memory out){  // for user side\r\n        require(DoesExists(key) == true, \"Object does not exists\");\r\n        uint lvl  = Objects[key];\r\n        return(Levels[lvl]);\r\n    }\r\n}",
  "sourcePath": "C:\\Users\\Lokesh\\Desktop\\jam\\pro\\contracts\\AssignLevel.sol",
  "compiler": {
    "name": "solc",
    "version": "0.8.17+commit.8df45f5f.Emscripten.clang"
  },
  "schemaVersion": "3.4.15",
  "updatedAt": "2024-01-22T19:49:59.977Z",
  "networkType": "ethereum",
  "devdoc": {
    "kind": "dev",
    "methods": {},
    "version": 1
  },
  "userdoc": {
    "kind": "user",
    "methods": {},
    "version": 1
  }
}