{
  "contractName": "BibaAppend",
  "abi": [
    {
      "inputs": [
        {
          "internalType": "address",
          "name": "_assignRole",
          "type": "address"
        },
        {
          "internalType": "address",
          "name": "_case",
          "type": "address"
        }
      ],
      "stateMutability": "nonpayable",
      "type": "constructor"
    },
    {
      "anonymous": false,
      "inputs": [
        {
          "indexed": false,
          "internalType": "string",
          "name": "",
          "type": "string"
        },
        {
          "indexed": false,
          "internalType": "address",
          "name": "",
          "type": "address"
        },
        {
          "indexed": false,
          "internalType": "bytes32",
          "name": "",
          "type": "bytes32"
        },
        {
          "indexed": false,
          "internalType": "bytes32",
          "name": "",
          "type": "bytes32"
        }
      ],
      "name": "AppendAllowed",
      "type": "event"
    },
    {
      "inputs": [
        {
          "internalType": "bytes32",
          "name": "",
          "type": "bytes32"
        },
        {
          "internalType": "uint256",
          "name": "",
          "type": "uint256"
        }
      ],
      "name": "AppendedEvidence",
      "outputs": [
        {
          "internalType": "bytes32",
          "name": "",
          "type": "bytes32"
        }
      ],
      "stateMutability": "view",
      "type": "function",
      "constant": true
    },
    {
      "inputs": [
        {
          "internalType": "bytes32",
          "name": "",
          "type": "bytes32"
        }
      ],
      "name": "TrackerMapping",
      "outputs": [
        {
          "internalType": "uint256",
          "name": "",
          "type": "uint256"
        }
      ],
      "stateMutability": "view",
      "type": "function",
      "constant": true
    },
    {
      "inputs": [],
      "name": "scase",
      "outputs": [
        {
          "internalType": "contract Case",
          "name": "",
          "type": "address"
        }
      ],
      "stateMutability": "view",
      "type": "function",
      "constant": true
    },
    {
      "inputs": [],
      "name": "user",
      "outputs": [
        {
          "internalType": "contract AssignRole",
          "name": "",
          "type": "address"
        }
      ],
      "stateMutability": "view",
      "type": "function",
      "constant": true
    },
    {
      "inputs": [
        {
          "internalType": "bytes32",
          "name": "key",
          "type": "bytes32"
        }
      ],
      "name": "returnTimes",
      "outputs": [
        {
          "internalType": "uint256",
          "name": "",
          "type": "uint256"
        }
      ],
      "stateMutability": "view",
      "type": "function",
      "constant": true
    },
    {
      "inputs": [
        {
          "internalType": "bytes32",
          "name": "key",
          "type": "bytes32"
        },
        {
          "internalType": "address",
          "name": "ad_user",
          "type": "address"
        },
        {
          "internalType": "bytes32",
          "name": "key_of_new",
          "type": "bytes32"
        },
        {
          "internalType": "uint256",
          "name": "case_num",
          "type": "uint256"
        }
      ],
      "name": "append_allowed",
      "outputs": [
        {
          "internalType": "bool",
          "name": "",
          "type": "bool"
        }
      ],
      "stateMutability": "payable",
      "type": "function",
      "payable": true
    }
  ],
  "bytecode": "0x60806040523480156200001157600080fd5b5060405162000f4138038062000f4183398181016040528101906200003791906200012a565b816000806101000a81548173ffffffffffffffffffffffffffffffffffffffff021916908373ffffffffffffffffffffffffffffffffffffffff16021790555080600160006101000a81548173ffffffffffffffffffffffffffffffffffffffff021916908373ffffffffffffffffffffffffffffffffffffffff160217905550505062000171565b600080fd5b600073ffffffffffffffffffffffffffffffffffffffff82169050919050565b6000620000f282620000c5565b9050919050565b6200010481620000e5565b81146200011057600080fd5b50565b6000815190506200012481620000f9565b92915050565b60008060408385031215620001445762000143620000c0565b5b6000620001548582860162000113565b9250506020620001678582860162000113565b9150509250929050565b610dc080620001816000396000f3fe6080604052600436106100555760003560e01c80632f4d45301461005a5780634b7fb0fe146100975780634f8632ba146100d457806353ee6742146100ff578063b986d11d1461013c578063dbf1ba7a1461016c575b600080fd5b34801561006657600080fd5b50610081600480360381019061007c9190610693565b610197565b60405161008e91906106d9565b60405180910390f35b3480156100a357600080fd5b506100be60048036038101906100b99190610693565b6101af565b6040516100cb91906106d9565b60405180910390f35b3480156100e057600080fd5b506100e96101cc565b6040516100f69190610773565b60405180910390f35b34801561010b57600080fd5b50610126600480360381019061012191906107ba565b6101f0565b6040516101339190610809565b60405180910390f35b61015660048036038101906101519190610862565b610215565b60405161016391906108e4565b60405180910390f35b34801561017857600080fd5b50610181610632565b60405161018e9190610920565b60405180910390f35b60036020528060005260406000206000915090505481565b600060036000838152602001908152602001600020549050919050565b60008054906101000a900473ffffffffffffffffffffffffffffffffffffffff1681565b6002602052816000526040600020602052806000526040600020600091509150505481565b600060011515600160009054906101000a900473ffffffffffffffffffffffffffffffffffffffff1673ffffffffffffffffffffffffffffffffffffffff166359ea8ddd86856040518363ffffffff1660e01b815260040161027892919061094a565b602060405180830381865afa158015610295573d6000803e3d6000fd5b505050506040513d601f19601f820116820180604052508101906102b9919061099f565b1515146102fb576040517f08c379a00000000000000000000000000000000000000000000000000000000081526004016102f290610a4f565b60405180910390fd5b6000600160009054906101000a900473ffffffffffffffffffffffffffffffffffffffff1673ffffffffffffffffffffffffffffffffffffffff1663ac50417c84886040518363ffffffff1660e01b815260040161035a929190610a6f565b6020604051808303816000875af1158015610379573d6000803e3d6000fd5b505050506040513d601f19601f8201168201806040525081019061039d9190610aad565b905060008060009054906101000a900473ffffffffffffffffffffffffffffffffffffffff1673ffffffffffffffffffffffffffffffffffffffff16634cc70a0f876040518263ffffffff1660e01b81526004016103fb9190610ada565b602060405180830381865afa158015610418573d6000803e3d6000fd5b505050506040513d601f19601f8201168201806040525081019061043c9190610aad565b90506000828210159050600115158115151461048d576040517f08c379a000000000000000000000000000000000000000000000000000000000815260040161048490610b67565b60405180910390fd5b6000610498896101af565b905060006001826104a99190610bb6565b905080600360008c81526020019081526020016000208190555060008a896040516020016104d8929190610c0b565b60405160208183030381529060405280519060200120905060006040518060400160405280600481526020017f48656c6c000000000000000000000000000000000000000000000000000000008152509050600160009054906101000a900473ffffffffffffffffffffffffffffffffffffffff1673ffffffffffffffffffffffffffffffffffffffff1663257dbfc38a83336040518463ffffffff1660e01b815260040161058993929190610cb6565b600060405180830381600087803b1580156105a357600080fd5b505af11580156105b7573d6000803e3d6000fd5b5050505081600260008e81526020019081526020016000206000858152602001908152602001600020819055507ffc17de64b054ad1a958ee831f3de41b230180f4683f1c674b292244faef113798b8d8460405161061793929190610d40565b60405180910390a16001975050505050505050949350505050565b600160009054906101000a900473ffffffffffffffffffffffffffffffffffffffff1681565b600080fd5b6000819050919050565b6106708161065d565b811461067b57600080fd5b50565b60008135905061068d81610667565b92915050565b6000602082840312156106a9576106a8610658565b5b60006106b78482850161067e565b91505092915050565b6000819050919050565b6106d3816106c0565b82525050565b60006020820190506106ee60008301846106ca565b92915050565b600073ffffffffffffffffffffffffffffffffffffffff82169050919050565b6000819050919050565b600061073961073461072f846106f4565b610714565b6106f4565b9050919050565b600061074b8261071e565b9050919050565b600061075d82610740565b9050919050565b61076d81610752565b82525050565b60006020820190506107886000830184610764565b92915050565b610797816106c0565b81146107a257600080fd5b50565b6000813590506107b48161078e565b92915050565b600080604083850312156107d1576107d0610658565b5b60006107df8582860161067e565b92505060206107f0858286016107a5565b9150509250929050565b6108038161065d565b82525050565b600060208201905061081e60008301846107fa565b92915050565b600061082f826106f4565b9050919050565b61083f81610824565b811461084a57600080fd5b50565b60008135905061085c81610836565b92915050565b6000806000806080858703121561087c5761087b610658565b5b600061088a8782880161067e565b945050602061089b8782880161084d565b93505060406108ac8782880161067e565b92505060606108bd878288016107a5565b91505092959194509250565b60008115159050919050565b6108de816108c9565b82525050565b60006020820190506108f960008301846108d5565b92915050565b600061090a82610740565b9050919050565b61091a816108ff565b82525050565b60006020820190506109356000830184610911565b92915050565b61094481610824565b82525050565b600060408201905061095f600083018561093b565b61096c60208301846106ca565b9392505050565b61097c816108c9565b811461098757600080fd5b50565b60008151905061099981610973565b92915050565b6000602082840312156109b5576109b4610658565b5b60006109c38482850161098a565b91505092915050565b600082825260208201905092915050565b7f43616e6e6f7420696e746572616374207769746820746869732065766964656e60008201527f6365000000000000000000000000000000000000000000000000000000000000602082015250565b6000610a396022836109cc565b9150610a44826109dd565b604082019050919050565b60006020820190508181036000830152610a6881610a2c565b9050919050565b6000604082019050610a8460008301856106ca565b610a9160208301846107fa565b9392505050565b600081519050610aa78161078e565b92915050565b600060208284031215610ac357610ac2610658565b5b6000610ad184828501610a98565b91505092915050565b6000602082019050610aef600083018461093b565b92915050565b7f55736572206973206e6f7420617574686f72697a656420746f20617070656e6460008201527f20746f2065766964656e63650000000000000000000000000000000000000000602082015250565b6000610b51602c836109cc565b9150610b5c82610af5565b604082019050919050565b60006020820190508181036000830152610b8081610b44565b9050919050565b7f4e487b7100000000000000000000000000000000000000000000000000000000600052601160045260246000fd5b6000610bc1826106c0565b9150610bcc836106c0565b9250828201905080821115610be457610be3610b87565b5b92915050565b6000819050919050565b610c05610c008261065d565b610bea565b82525050565b6000610c178285610bf4565b602082019150610c278284610bf4565b6020820191508190509392505050565b600081519050919050565b60005b83811015610c60578082015181840152602081019050610c45565b60008484015250505050565b6000601f19601f8301169050919050565b6000610c8882610c37565b610c9281856109cc565b9350610ca2818560208601610c42565b610cab81610c6c565b840191505092915050565b6000606082019050610ccb60008301866106ca565b8181036020830152610cdd8185610c7d565b9050610cec604083018461093b565b949350505050565b7f557365722068617320617070656e64656420746f2065766964656e6365000000600082015250565b6000610d2a601d836109cc565b9150610d3582610cf4565b602082019050919050565b60006080820190508181036000830152610d5981610d1d565b9050610d68602083018661093b565b610d7560408301856107fa565b610d8260608301846107fa565b94935050505056fea2646970667358221220a9ff21460d93ffdf6aaf8a3537921aef0513e4d394ec73ed5496427af107520764736f6c63430008110033",
  "immutableReferences": {},
  "source": "// SPDX-License-Identifier: MIT\r\npragma solidity ^0.8.17;\r\n\r\nimport \"./AssignRole.sol\";\r\nimport \"./Case.sol\";\r\ncontract BibaAppend{\r\n   //AssignLevel public evidence; // contract instance\r\n   AssignRole public  user;\r\n   Case public scase;\r\n   mapping (bytes32 => mapping(uint => bytes32)) public AppendedEvidence;  // keep track of which evidence was appended to, but an evidence can be appended to multiple times\r\n   \r\n   //find a new structure for this? nested mapping (bytes32 (og_key) => mapping(uint => newhash)) \r\n   //use another mapping to keep track of how many times a evidence was appended to \r\n   \r\n   mapping (bytes32 =>uint) public TrackerMapping; // keep track of how many times and evidence was appended to \r\n   \r\n   //Evidence public evidence;\r\n   event AppendAllowed(string, address, bytes32, bytes32); // event for blockchain\r\n   \r\n   constructor( address _assignRole, address _case){\r\n    //evidence = AssignLevel(_assignLevel);\r\n    user = AssignRole(_assignRole);\r\n    scase = Case(_case);\r\n    //create = Evidence()\r\n   }\r\n\r\n   function returnTimes(bytes32 key) public view returns(uint){  // return number of times an evidence was appended to\r\n      return TrackerMapping[key];\r\n   }\r\n\r\n   function append_allowed(bytes32 key, address ad_user, bytes32 key_of_new, uint case_num) public payable returns (bool){\r\n    require(scase.is_authorized(ad_user, case_num) == true, \"Cannot interact with this evidence\");\r\n    uint L = scase.return_level(case_num, key);\r\n    uint R = user.returnRole(ad_user);\r\n    bool val = (R>=L);\r\n    \r\n    require(val == true, \"User is not authorized to append to evidence\");\r\n    \r\n    uint times = returnTimes(key); // find how many times the og evidence was appended to\r\n    uint ntime = times+1;\r\n    TrackerMapping[key] = ntime; // update how many times the orginal evidenece was appended to\r\n    \r\n    bytes32 newhash  = keccak256(abi.encodePacked(key,key_of_new)); // calculate new hash\r\n    string memory str = \"Hell\";\r\n    scase.register_evi(case_num, str, msg.sender); // create a new evidence with new founf evidence related to og evidence\r\n    \r\n    AppendedEvidence[key][ntime] = newhash; // finally add the appended evidence in the nested mapping \r\n    emit AppendAllowed(\"User has appended to evidence\", ad_user, key, newhash);\r\n    \r\n    return true;\r\n   }\r\n\r\n}",
  "sourcePath": "C:\\Users\\Lokesh\\Desktop\\intuit (4)\\pro\\contracts\\BibaAppend .sol",
  "compiler": {
    "name": "solc",
    "version": "0.8.17+commit.8df45f5f.Emscripten.clang"
  },
  "schemaVersion": "3.4.15",
  "updatedAt": "2024-02-27T07:32:48.321Z",
  "networkType": "ethereum",
  "devdoc": {
    "kind": "dev",
    "methods": {},
    "version": 1
  },
  "userdoc": {
    "kind": "user",
    "methods": {},
    "version": 1
  }
}