{
  "contractName": "BibaRead",
  "abi": [
    {
      "inputs": [
        {
          "internalType": "address",
          "name": "_assignRole",
          "type": "address"
        },
        {
          "internalType": "address",
          "name": "_case",
          "type": "address"
        }
      ],
      "stateMutability": "nonpayable",
      "type": "constructor"
    },
    {
      "anonymous": false,
      "inputs": [
        {
          "indexed": false,
          "internalType": "string",
          "name": "",
          "type": "string"
        },
        {
          "indexed": false,
          "internalType": "address",
          "name": "",
          "type": "address"
        },
        {
          "indexed": false,
          "internalType": "bytes32",
          "name": "",
          "type": "bytes32"
        }
      ],
      "name": "ReadAllowed",
      "type": "event"
    },
    {
      "inputs": [],
      "name": "scase",
      "outputs": [
        {
          "internalType": "contract Case",
          "name": "",
          "type": "address"
        }
      ],
      "stateMutability": "view",
      "type": "function",
      "constant": true
    },
    {
      "inputs": [],
      "name": "user",
      "outputs": [
        {
          "internalType": "contract AssignRole",
          "name": "",
          "type": "address"
        }
      ],
      "stateMutability": "view",
      "type": "function",
      "constant": true
    },
    {
      "inputs": [
        {
          "internalType": "bytes32",
          "name": "key",
          "type": "bytes32"
        },
        {
          "internalType": "address",
          "name": "ad_user",
          "type": "address"
        },
        {
          "internalType": "uint256",
          "name": "case_num",
          "type": "uint256"
        }
      ],
      "name": "read_allowed",
      "outputs": [
        {
          "internalType": "bool",
          "name": "",
          "type": "bool"
        }
      ],
      "stateMutability": "payable",
      "type": "function",
      "payable": true
    }
  ],
  "bytecode": "0x608060405234801561001057600080fd5b50604051610c06380380610c068339818101604052810190610032919061011d565b816000806101000a81548173ffffffffffffffffffffffffffffffffffffffff021916908373ffffffffffffffffffffffffffffffffffffffff16021790555080600160006101000a81548173ffffffffffffffffffffffffffffffffffffffff021916908373ffffffffffffffffffffffffffffffffffffffff160217905550505061015d565b600080fd5b600073ffffffffffffffffffffffffffffffffffffffff82169050919050565b60006100ea826100bf565b9050919050565b6100fa816100df565b811461010557600080fd5b50565b600081519050610117816100f1565b92915050565b60008060408385031215610134576101336100ba565b5b600061014285828601610108565b925050602061015385828601610108565b9150509250929050565b610a9a8061016c6000396000f3fe6080604052600436106100345760003560e01c80634f8632ba14610039578063a8bcb2a814610064578063dbf1ba7a14610094575b600080fd5b34801561004557600080fd5b5061004e6100bf565b60405161005b919061052b565b60405180910390f35b61007e600480360381019061007991906105f5565b6100e3565b60405161008b9190610663565b60405180910390f35b3480156100a057600080fd5b506100a9610486565b6040516100b6919061069f565b60405180910390f35b60008054906101000a900473ffffffffffffffffffffffffffffffffffffffff1681565b600060011515600160009054906101000a900473ffffffffffffffffffffffffffffffffffffffff1673ffffffffffffffffffffffffffffffffffffffff166359ea8ddd85856040518363ffffffff1660e01b81526004016101469291906106d8565b602060405180830381865afa158015610163573d6000803e3d6000fd5b505050506040513d601f19601f82011682018060405250810190610187919061072d565b1515146101c9576040517f08c379a00000000000000000000000000000000000000000000000000000000081526004016101c0906107dd565b60405180910390fd5b60011515600160009054906101000a900473ffffffffffffffffffffffffffffffffffffffff1673ffffffffffffffffffffffffffffffffffffffff166305805e0284876040518363ffffffff1660e01b815260040161022a92919061080c565b602060405180830381865afa158015610247573d6000803e3d6000fd5b505050506040513d601f19601f8201168201806040525081019061026b919061072d565b1515146102ad576040517f08c379a00000000000000000000000000000000000000000000000000000000081526004016102a4906108cd565b60405180910390fd5b6000600160009054906101000a900473ffffffffffffffffffffffffffffffffffffffff1673ffffffffffffffffffffffffffffffffffffffff1663ac50417c84876040518363ffffffff1660e01b815260040161030c92919061080c565b6020604051808303816000875af115801561032b573d6000803e3d6000fd5b505050506040513d601f19601f8201168201806040525081019061034f9190610902565b905060008060009054906101000a900473ffffffffffffffffffffffffffffffffffffffff1673ffffffffffffffffffffffffffffffffffffffff16634cc70a0f866040518263ffffffff1660e01b81526004016103ad919061092f565b602060405180830381865afa1580156103ca573d6000803e3d6000fd5b505050506040513d601f19601f820116820180604052508101906103ee9190610902565b90506000828211159050600115158115151461043f576040517f08c379a0000000000000000000000000000000000000000000000000000000008152600401610436906109bc565b60405180910390fd5b7f914a47d0b62837fbe404f8576ce267855f7af1d9acca62fea203e70efa7da78c8688604051610470929190610a28565b60405180910390a1600193505050509392505050565b600160009054906101000a900473ffffffffffffffffffffffffffffffffffffffff1681565b600073ffffffffffffffffffffffffffffffffffffffff82169050919050565b6000819050919050565b60006104f16104ec6104e7846104ac565b6104cc565b6104ac565b9050919050565b6000610503826104d6565b9050919050565b6000610515826104f8565b9050919050565b6105258161050a565b82525050565b6000602082019050610540600083018461051c565b92915050565b600080fd5b6000819050919050565b61055e8161054b565b811461056957600080fd5b50565b60008135905061057b81610555565b92915050565b600061058c826104ac565b9050919050565b61059c81610581565b81146105a757600080fd5b50565b6000813590506105b981610593565b92915050565b6000819050919050565b6105d2816105bf565b81146105dd57600080fd5b50565b6000813590506105ef816105c9565b92915050565b60008060006060848603121561060e5761060d610546565b5b600061061c8682870161056c565b935050602061062d868287016105aa565b925050604061063e868287016105e0565b9150509250925092565b60008115159050919050565b61065d81610648565b82525050565b60006020820190506106786000830184610654565b92915050565b6000610689826104f8565b9050919050565b6106998161067e565b82525050565b60006020820190506106b46000830184610690565b92915050565b6106c381610581565b82525050565b6106d2816105bf565b82525050565b60006040820190506106ed60008301856106ba565b6106fa60208301846106c9565b9392505050565b61070a81610648565b811461071557600080fd5b50565b60008151905061072781610701565b92915050565b60006020828403121561074357610742610546565b5b600061075184828501610718565b91505092915050565b600082825260208201905092915050565b7f43616e6e6f7420696e746572616374207769746820746869732065766964656e60008201527f6365000000000000000000000000000000000000000000000000000000000000602082015250565b60006107c760228361075a565b91506107d28261076b565b604082019050919050565b600060208201905081810360008301526107f6816107ba565b9050919050565b6108068161054b565b82525050565b600060408201905061082160008301856106c9565b61082e60208301846107fd565b9392505050565b7f457669646e6563652063616e6e6f7420626520696e746572616374656420776960008201527f7468202c20697420686173206e6f74206265656e2061737369676e656420612060208201527f6c6576656c000000000000000000000000000000000000000000000000000000604082015250565b60006108b760458361075a565b91506108c282610835565b606082019050919050565b600060208201905081810360008301526108e6816108aa565b9050919050565b6000815190506108fc816105c9565b92915050565b60006020828403121561091857610917610546565b5b6000610926848285016108ed565b91505092915050565b600060208201905061094460008301846106ba565b92915050565b7f55736572206973206e6f7420617574686f72697a656420746f2072656164206560008201527f766964656e636500000000000000000000000000000000000000000000000000602082015250565b60006109a660278361075a565b91506109b18261094a565b604082019050919050565b600060208201905081810360008301526109d581610999565b9050919050565b7f557365722068617320726561642065766964656e636500000000000000000000600082015250565b6000610a1260168361075a565b9150610a1d826109dc565b602082019050919050565b60006060820190508181036000830152610a4181610a05565b9050610a5060208301856106ba565b610a5d60408301846107fd565b939250505056fea2646970667358221220602ed089bff1672e34b9b26de135517b006f3ccad237a8c164f4d1199ed4249064736f6c63430008110033",
  "immutableReferences": {},
  "source": "// SPDX-License-Identifier: MIT\r\npragma solidity ^0.8.17;\r\n\r\nimport \"./AssignRole.sol\";\r\nimport \"./Case.sol\";\r\n\r\ncontract BibaRead{\r\n   AssignRole public  user; \r\n   Case public scase;\r\n\r\n   mapping (address => bytes32) ReadEvidence;  // keep track of which user read which evidence, one user can read multiple evidences so like is this needed\r\n\r\n   event ReadAllowed(string, address, bytes32); // event for blockchain\r\n   \r\n   constructor(address _assignRole, address _case){\r\n    user = AssignRole(_assignRole);\r\n    scase = Case(_case);\r\n   }\r\n\r\n   function read_allowed(bytes32 key, address ad_user, uint case_num) public payable returns (bool){\r\n    require(scase.is_authorized(ad_user, case_num) == true, \"Cannot interact with this evidence\"); // checking DAC\r\n    require(scase.is_level_assigned(case_num, key)== true, \"Evidnece cannot be interacted with , it has not been assigned a level\"); // unassigned levels \r\n    uint L = scase.return_level(case_num, key);\r\n    uint R = user.returnRole(ad_user);\r\n\r\n    bool val = (R<=L);\r\n    require(val == true, \"User is not authorized to read evidence\");\r\n    emit ReadAllowed(\"User has read evidence\", ad_user, key);\r\n    return true;\r\n   }\r\n\r\n}",
  "sourcePath": "C:\\Users\\Lokesh\\Desktop\\intuit (4)\\pro\\contracts\\BibaRead .sol",
  "compiler": {
    "name": "solc",
    "version": "0.8.17+commit.8df45f5f.Emscripten.clang"
  },
  "schemaVersion": "3.4.15",
  "updatedAt": "2024-02-27T07:32:49.172Z",
  "networkType": "ethereum",
  "devdoc": {
    "kind": "dev",
    "methods": {},
    "version": 1
  },
  "userdoc": {
    "kind": "user",
    "methods": {},
    "version": 1
  }
}