{
  "contractName": "Case",
  "abi": [
    {
      "inputs": [
        {
          "internalType": "address",
          "name": "_assignrole",
          "type": "address"
        }
      ],
      "stateMutability": "nonpayable",
      "type": "constructor"
    },
    {
      "anonymous": false,
      "inputs": [
        {
          "indexed": false,
          "internalType": "string",
          "name": "",
          "type": "string"
        },
        {
          "indexed": false,
          "internalType": "bytes32",
          "name": "",
          "type": "bytes32"
        },
        {
          "indexed": false,
          "internalType": "uint256",
          "name": "",
          "type": "uint256"
        }
      ],
      "name": "EvidenceAssignedLevel",
      "type": "event"
    },
    {
      "anonymous": false,
      "inputs": [
        {
          "indexed": false,
          "internalType": "string",
          "name": "",
          "type": "string"
        },
        {
          "indexed": false,
          "internalType": "bytes32",
          "name": "",
          "type": "bytes32"
        },
        {
          "indexed": false,
          "internalType": "address",
          "name": "",
          "type": "address"
        }
      ],
      "name": "EvidenceRegistered",
      "type": "event"
    },
    {
      "anonymous": false,
      "inputs": [
        {
          "indexed": false,
          "internalType": "string",
          "name": "",
          "type": "string"
        },
        {
          "indexed": false,
          "internalType": "address",
          "name": "",
          "type": "address"
        },
        {
          "indexed": false,
          "internalType": "uint256",
          "name": "",
          "type": "uint256"
        }
      ],
      "name": "InvestigatorRemoved",
      "type": "event"
    },
    {
      "anonymous": false,
      "inputs": [
        {
          "indexed": false,
          "internalType": "string",
          "name": "",
          "type": "string"
        },
        {
          "indexed": false,
          "internalType": "string",
          "name": "",
          "type": "string"
        },
        {
          "indexed": false,
          "internalType": "uint256",
          "name": "",
          "type": "uint256"
        },
        {
          "indexed": false,
          "internalType": "address",
          "name": "",
          "type": "address"
        }
      ],
      "name": "RegistrationDone",
      "type": "event"
    },
    {
      "inputs": [],
      "name": "assignrole",
      "outputs": [
        {
          "internalType": "contract AssignRole",
          "name": "",
          "type": "address"
        }
      ],
      "stateMutability": "view",
      "type": "function",
      "constant": true
    },
    {
      "inputs": [
        {
          "internalType": "uint256",
          "name": "num",
          "type": "uint256"
        }
      ],
      "name": "does_case_exists",
      "outputs": [
        {
          "internalType": "bool",
          "name": "",
          "type": "bool"
        }
      ],
      "stateMutability": "view",
      "type": "function",
      "constant": true
    },
    {
      "inputs": [
        {
          "internalType": "string",
          "name": "name",
          "type": "string"
        },
        {
          "internalType": "uint256",
          "name": "case_number",
          "type": "uint256"
        },
        {
          "internalType": "address",
          "name": "HI",
          "type": "address"
        }
      ],
      "name": "createcase",
      "outputs": [],
      "stateMutability": "payable",
      "type": "function",
      "payable": true
    },
    {
      "inputs": [
        {
          "internalType": "uint256",
          "name": "case_number",
          "type": "uint256"
        }
      ],
      "name": "returnHI",
      "outputs": [
        {
          "internalType": "address",
          "name": "",
          "type": "address"
        }
      ],
      "stateMutability": "payable",
      "type": "function",
      "payable": true
    },
    {
      "inputs": [
        {
          "internalType": "address",
          "name": "user",
          "type": "address"
        },
        {
          "internalType": "uint256",
          "name": "number",
          "type": "uint256"
        }
      ],
      "name": "is_authorized",
      "outputs": [
        {
          "internalType": "bool",
          "name": "",
          "type": "bool"
        }
      ],
      "stateMutability": "view",
      "type": "function",
      "constant": true
    },
    {
      "inputs": [
        {
          "internalType": "address",
          "name": "inv",
          "type": "address"
        },
        {
          "internalType": "uint256",
          "name": "num",
          "type": "uint256"
        }
      ],
      "name": "add_investigator",
      "outputs": [],
      "stateMutability": "payable",
      "type": "function",
      "payable": true
    },
    {
      "inputs": [
        {
          "internalType": "uint256",
          "name": "case_number",
          "type": "uint256"
        },
        {
          "internalType": "bytes32",
          "name": "key",
          "type": "bytes32"
        }
      ],
      "name": "does_evidence_exists",
      "outputs": [
        {
          "internalType": "bool",
          "name": "",
          "type": "bool"
        }
      ],
      "stateMutability": "view",
      "type": "function",
      "constant": true
    },
    {
      "inputs": [
        {
          "internalType": "uint256",
          "name": "case_number",
          "type": "uint256"
        },
        {
          "internalType": "bytes32",
          "name": "key",
          "type": "bytes32"
        }
      ],
      "name": "is_level_assigned",
      "outputs": [
        {
          "internalType": "bool",
          "name": "",
          "type": "bool"
        }
      ],
      "stateMutability": "view",
      "type": "function",
      "constant": true
    },
    {
      "inputs": [
        {
          "internalType": "uint256",
          "name": "case_number",
          "type": "uint256"
        },
        {
          "internalType": "address",
          "name": "inv",
          "type": "address"
        }
      ],
      "name": "remove_investigator",
      "outputs": [],
      "stateMutability": "payable",
      "type": "function",
      "payable": true
    },
    {
      "inputs": [
        {
          "internalType": "bytes32",
          "name": "key",
          "type": "bytes32"
        },
        {
          "internalType": "uint256",
          "name": "case_num",
          "type": "uint256"
        }
      ],
      "name": "setlevel",
      "outputs": [],
      "stateMutability": "payable",
      "type": "function",
      "payable": true
    },
    {
      "inputs": [
        {
          "internalType": "uint256",
          "name": "case_num",
          "type": "uint256"
        },
        {
          "internalType": "string",
          "name": "ev",
          "type": "string"
        }
      ],
      "name": "assign_inl",
      "outputs": [],
      "stateMutability": "payable",
      "type": "function",
      "payable": true
    },
    {
      "inputs": [
        {
          "internalType": "uint256",
          "name": "case_num",
          "type": "uint256"
        },
        {
          "internalType": "string",
          "name": "ev",
          "type": "string"
        },
        {
          "internalType": "address",
          "name": "user",
          "type": "address"
        }
      ],
      "name": "register_evi",
      "outputs": [],
      "stateMutability": "payable",
      "type": "function",
      "payable": true
    },
    {
      "inputs": [
        {
          "internalType": "uint256",
          "name": "case_num",
          "type": "uint256"
        },
        {
          "internalType": "bytes32",
          "name": "key",
          "type": "bytes32"
        }
      ],
      "name": "return_level",
      "outputs": [
        {
          "internalType": "uint256",
          "name": "",
          "type": "uint256"
        }
      ],
      "stateMutability": "payable",
      "type": "function",
      "payable": true
    }
  ],
  "bytecode": "0x60806040523480156200001157600080fd5b5060405162001ef538038062001ef58339818101604052810190620000379190620000e8565b806000806101000a81548173ffffffffffffffffffffffffffffffffffffffff021916908373ffffffffffffffffffffffffffffffffffffffff160217905550506200011a565b600080fd5b600073ffffffffffffffffffffffffffffffffffffffff82169050919050565b6000620000b08262000083565b9050919050565b620000c281620000a3565b8114620000ce57600080fd5b50565b600081519050620000e281620000b7565b92915050565b6000602082840312156200010157620001006200007e565b5b60006200011184828501620000d1565b91505092915050565b611dcb806200012a6000396000f3fe6080604052600436106100c25760003560e01c80636cad4fa61161007f578063ac50417c11610059578063ac50417c14610228578063b929a09214610258578063bffc4bbf14610295578063f7bb8893146102b1576100c2565b80636cad4fa6146101b157806374bab760146101cd57806375eec87b146101fd576100c2565b806305805e02146100c75780631059536a146101045780631c6513d314610120578063257dbfc31461013c57806359ea8ddd146101585780636409383414610195575b600080fd5b3480156100d357600080fd5b506100ee60048036038101906100e99190610e1a565b6102ee565b6040516100fb9190610e75565b60405180910390f35b61011e60048036038101906101199190611034565b610339565b005b61013a600480360381019061013591906110a3565b610635565b005b610156600480360381019061015191906110e3565b6106ef565b005b34801561016457600080fd5b5061017f600480360381019061017a9190611152565b610847565b60405161018c9190610e75565b60405180910390f35b6101af60048036038101906101aa9190611192565b6108be565b005b6101cb60048036038101906101c69190611152565b61095a565b005b6101e760048036038101906101e291906111d2565b6109bd565b6040516101f4919061120e565b60405180910390f35b34801561020957600080fd5b506102126109fa565b60405161021f9190611288565b60405180910390f35b610242600480360381019061023d9190610e1a565b610a1e565b60405161024f91906112b2565b60405180910390f35b34801561026457600080fd5b5061027f600480360381019061027a91906111d2565b610b4b565b60405161028c9190610e75565b60405180910390f35b6102af60048036038101906102aa91906112cd565b610bad565b005b3480156102bd57600080fd5b506102d860048036038101906102d39190610e1a565b610cd6565b6040516102e59190610e75565b60405180910390f35b6000806002600085815260200190815260200160002090506001816003016000858152602001908152602001600020540361032d576000915050610333565b60019150505b92915050565b6000151561034683610b4b565b151514610388576040517f08c379a000000000000000000000000000000000000000000000000000000000815260040161037f90611386565b60405180910390fd5b600160008054906101000a900473ffffffffffffffffffffffffffffffffffffffff1673ffffffffffffffffffffffffffffffffffffffff16634cc70a0f836040518263ffffffff1660e01b81526004016103e3919061120e565b602060405180830381865afa158015610400573d6000803e3d6000fd5b505050506040513d601f19601f8201168201806040525081019061042491906113bb565b14610464576040517f08c379a000000000000000000000000000000000000000000000000000000000815260040161045b9061145a565b60405180910390fd5b60006002600084815260200190815260200160002090508381600001908161048c9190611687565b508360405160200161049e91906117bf565b604051602081830303815290604052805190602001208160010181905550818160050160006101000a81548173ffffffffffffffffffffffffffffffffffffffff021916908373ffffffffffffffffffffffffffffffffffffffff16021790555060018160040160008473ffffffffffffffffffffffffffffffffffffffff1673ffffffffffffffffffffffffffffffffffffffff168152602001908152602001600020819055506001839080600181540180825580915050600190039060005260206000200160009091909190915055816003600085815260200190815260200160002060006101000a81548173ffffffffffffffffffffffffffffffffffffffff021916908373ffffffffffffffffffffffffffffffffffffffff1602179055507fbeee83be34c9959450b93cedfded431c13b97c9004711f845ee7ac6e76e5834884846003600087815260200190815260200160002060009054906101000a900473ffffffffffffffffffffffffffffffffffffffff166040516106279392919061185b565b60405180910390a150505050565b60006002600083815260200190815260200160002090506000816006015490506000810361066d5760018161066a91906118db565b90505b600781111561067b57600790505b80826002016000868152602001908152602001600020819055506000826003016000868152602001908152602001600020819055507f368be28cc6079f5e88107aa5ac4b1390b5a78753b7bdb36206dfc1ae8c98385e84826040516106e1929190611990565b60405180910390a150505050565b60008260405160200161070291906117bf565b6040516020818303038152906040528051906020012090506001151561072785610b4b565b151514610769576040517f08c379a000000000000000000000000000000000000000000000000000000000815260040161076090611a18565b60405180910390fd5b600015156107778583610cd6565b1515146107b9576040517f08c379a00000000000000000000000000000000000000000000000000000000081526004016107b090611a84565b60405180910390fd5b6000600260008681526020019081526020016000209050600181600301600084815260200190815260200160002081905550600181600601600082825461080091906118db565b925050819055507fc1af16f5f8e3c3b57e2843dd14aab5832a95aeef0736b7b44cffc4d32c64cb9d8284604051610838929190611af0565b60405180910390a15050505050565b60008060026000848152602001908152602001600020905060018160040160008673ffffffffffffffffffffffffffffffffffffffff1673ffffffffffffffffffffffffffffffffffffffff16815260200190815260200160002054036108b25760019150506108b8565b60009150505b92915050565b600060026000848152602001908152602001600020905060008160040160008473ffffffffffffffffffffffffffffffffffffffff1673ffffffffffffffffffffffffffffffffffffffff168152602001908152602001600020819055507fb6b4e493a9247fb90495ec09db8e16879fe0ccf6f478ef5252b5de4559f319f2828460405161094d929190611b9e565b60405180910390a1505050565b600060026000838152602001908152602001600020905060018160040160008573ffffffffffffffffffffffffffffffffffffffff1673ffffffffffffffffffffffffffffffffffffffff16815260200190815260200160002081905550505050565b60006003600083815260200190815260200160002060009054906101000a900473ffffffffffffffffffffffffffffffffffffffff169050919050565b60008054906101000a900473ffffffffffffffffffffffffffffffffffffffff1681565b600060011515610a2d84610b4b565b151514610a6f576040517f08c379a0000000000000000000000000000000000000000000000000000000008152600401610a6690611a18565b60405180910390fd5b60011515610a7d8484610cd6565b151514610abf576040517f08c379a0000000000000000000000000000000000000000000000000000000008152600401610ab690611c26565b60405180910390fd5b60011515610acd84846102ee565b151514610b0f576040517f08c379a0000000000000000000000000000000000000000000000000000000008152600401610b0690611c92565b60405180910390fd5b60006002600085815260200190815260200160002090506000816002016000858152602001908152602001600020549050809250505092915050565b600080600090505b600180549050811015610ba2578260018281548110610b7557610b74611cb2565b5b906000526020600020015403610b8f576001915050610ba8565b8080610b9a90611ce1565b915050610b53565b50600090505b919050565b600081604051602001610bc091906117bf565b60405160208183030381529060405280519060200120905060011515610be584610b4b565b151514610c27576040517f08c379a0000000000000000000000000000000000000000000000000000000008152600401610c1e90611a18565b60405180910390fd5b60011515610c358483610cd6565b151514610c77576040517f08c379a0000000000000000000000000000000000000000000000000000000008152600401610c6e90611a84565b60405180910390fd5b60001515610c8584836102ee565b151514610cc7576040517f08c379a0000000000000000000000000000000000000000000000000000000008152600401610cbe90611d75565b60405180910390fd5b610cd18184610635565b505050565b600060011515610ce584610b4b565b151514610d27576040517f08c379a0000000000000000000000000000000000000000000000000000000008152600401610d1e90611a18565b60405180910390fd5b60006002600085815260200190815260200160002090506000816002016000858152602001908152602001600020541115610d66576001915050610d94565b6000816003016000858152602001908152602001600020541115610d8e576001915050610d94565b60009150505b92915050565b6000604051905090565b600080fd5b600080fd5b6000819050919050565b610dc181610dae565b8114610dcc57600080fd5b50565b600081359050610dde81610db8565b92915050565b6000819050919050565b610df781610de4565b8114610e0257600080fd5b50565b600081359050610e1481610dee565b92915050565b60008060408385031215610e3157610e30610da4565b5b6000610e3f85828601610dcf565b9250506020610e5085828601610e05565b9150509250929050565b60008115159050919050565b610e6f81610e5a565b82525050565b6000602082019050610e8a6000830184610e66565b92915050565b600080fd5b600080fd5b6000601f19601f8301169050919050565b7f4e487b7100000000000000000000000000000000000000000000000000000000600052604160045260246000fd5b610ee382610e9a565b810181811067ffffffffffffffff82111715610f0257610f01610eab565b5b80604052505050565b6000610f15610d9a565b9050610f218282610eda565b919050565b600067ffffffffffffffff821115610f4157610f40610eab565b5b610f4a82610e9a565b9050602081019050919050565b82818337600083830152505050565b6000610f79610f7484610f26565b610f0b565b905082815260208101848484011115610f9557610f94610e95565b5b610fa0848285610f57565b509392505050565b600082601f830112610fbd57610fbc610e90565b5b8135610fcd848260208601610f66565b91505092915050565b600073ffffffffffffffffffffffffffffffffffffffff82169050919050565b600061100182610fd6565b9050919050565b61101181610ff6565b811461101c57600080fd5b50565b60008135905061102e81611008565b92915050565b60008060006060848603121561104d5761104c610da4565b5b600084013567ffffffffffffffff81111561106b5761106a610da9565b5b61107786828701610fa8565b935050602061108886828701610dcf565b92505060406110998682870161101f565b9150509250925092565b600080604083850312156110ba576110b9610da4565b5b60006110c885828601610e05565b92505060206110d985828601610dcf565b9150509250929050565b6000806000606084860312156110fc576110fb610da4565b5b600061110a86828701610dcf565b935050602084013567ffffffffffffffff81111561112b5761112a610da9565b5b61113786828701610fa8565b92505060406111488682870161101f565b9150509250925092565b6000806040838503121561116957611168610da4565b5b60006111778582860161101f565b925050602061118885828601610dcf565b9150509250929050565b600080604083850312156111a9576111a8610da4565b5b60006111b785828601610dcf565b92505060206111c88582860161101f565b9150509250929050565b6000602082840312156111e8576111e7610da4565b5b60006111f684828501610dcf565b91505092915050565b61120881610ff6565b82525050565b600060208201905061122360008301846111ff565b92915050565b6000819050919050565b600061124e61124961124484610fd6565b611229565b610fd6565b9050919050565b600061126082611233565b9050919050565b600061127282611255565b9050919050565b61128281611267565b82525050565b600060208201905061129d6000830184611279565b92915050565b6112ac81610dae565b82525050565b60006020820190506112c760008301846112a3565b92915050565b600080604083850312156112e4576112e3610da4565b5b60006112f285828601610dcf565b925050602083013567ffffffffffffffff81111561131357611312610da9565b5b61131f85828601610fa8565b9150509250929050565b600082825260208201905092915050565b7f4361736520697320616c72656164792063726561746564000000000000000000600082015250565b6000611370601783611329565b915061137b8261133a565b602082019050919050565b6000602082019050818103600083015261139f81611363565b9050919050565b6000815190506113b581610db8565b92915050565b6000602082840312156113d1576113d0610da4565b5b60006113df848285016113a6565b91505092915050565b7f4f6e6c79204865616420496e76657374696761746f722063616e20637265617460008201527f6520636173657300000000000000000000000000000000000000000000000000602082015250565b6000611444602783611329565b915061144f826113e8565b604082019050919050565b6000602082019050818103600083015261147381611437565b9050919050565b600081519050919050565b7f4e487b7100000000000000000000000000000000000000000000000000000000600052602260045260246000fd5b600060028204905060018216806114cc57607f821691505b6020821081036114df576114de611485565b5b50919050565b60008190508160005260206000209050919050565b60006020601f8301049050919050565b600082821b905092915050565b6000600883026115477fffffffffffffffffffffffffffffffffffffffffffffffffffffffffffffffff8261150a565b611551868361150a565b95508019841693508086168417925050509392505050565b600061158461157f61157a84610dae565b611229565b610dae565b9050919050565b6000819050919050565b61159e83611569565b6115b26115aa8261158b565b848454611517565b825550505050565b600090565b6115c76115ba565b6115d2818484611595565b505050565b5b818110156115f6576115eb6000826115bf565b6001810190506115d8565b5050565b601f82111561163b5761160c816114e5565b611615846114fa565b81016020851015611624578190505b611638611630856114fa565b8301826115d7565b50505b505050565b600082821c905092915050565b600061165e60001984600802611640565b1980831691505092915050565b6000611677838361164d565b9150826002028217905092915050565b6116908261147a565b67ffffffffffffffff8111156116a9576116a8610eab565b5b6116b382546114b4565b6116be8282856115fa565b600060209050601f8311600181146116f157600084156116df578287015190505b6116e9858261166b565b865550611751565b601f1984166116ff866114e5565b60005b8281101561172757848901518255600182019150602085019450602081019050611702565b868310156117445784890151611740601f89168261164d565b8355505b6001600288020188555050505b505050505050565b600081905092915050565b60005b83811015611782578082015181840152602081019050611767565b60008484015250505050565b60006117998261147a565b6117a38185611759565b93506117b3818560208601611764565b80840191505092915050565b60006117cb828461178e565b915081905092915050565b7f4361736520526567697374657265640000000000000000000000000000000000600082015250565b600061180c600f83611329565b9150611817826117d6565b602082019050919050565b600061182d8261147a565b6118378185611329565b9350611847818560208601611764565b61185081610e9a565b840191505092915050565b60006080820190508181036000830152611874816117ff565b905081810360208301526118888186611822565b905061189760408301856112a3565b6118a460608301846111ff565b949350505050565b7f4e487b7100000000000000000000000000000000000000000000000000000000600052601160045260246000fd5b60006118e682610dae565b91506118f183610dae565b9250828201905080821115611909576119086118ac565b5b92915050565b7f45766964656e6365206173206265656e2061737369676e65642061206c65766560008201527f6c00000000000000000000000000000000000000000000000000000000000000602082015250565b600061196b602183611329565b91506119768261190f565b604082019050919050565b61198a81610de4565b82525050565b600060608201905081810360008301526119a98161195e565b90506119b86020830185611981565b6119c560408301846112a3565b9392505050565b7f4361736520646f6573206e6f7420657869737473000000000000000000000000600082015250565b6000611a02601483611329565b9150611a0d826119cc565b602082019050919050565b60006020820190508181036000830152611a31816119f5565b9050919050565b7f45766964656e6365206578697374730000000000000000000000000000000000600082015250565b6000611a6e600f83611329565b9150611a7982611a38565b602082019050919050565b60006020820190508181036000830152611a9d81611a61565b9050919050565b7f45766964656e636520686173206265656e207265676973746572656420627900600082015250565b6000611ada601f83611329565b9150611ae582611aa4565b602082019050919050565b60006060820190508181036000830152611b0981611acd565b9050611b186020830185611981565b611b2560408301846111ff565b9392505050565b7f496e76657374696761746f7220686173206265656e2072656d6f76656420667260008201527f6f6d206361736500000000000000000000000000000000000000000000000000602082015250565b6000611b88602783611329565b9150611b9382611b2c565b604082019050919050565b60006060820190508181036000830152611bb781611b7b565b9050611bc660208301856111ff565b611bd360408301846112a3565b9392505050565b7f45766964656e636520646f6573206e6f74206578697374730000000000000000600082015250565b6000611c10601883611329565b9150611c1b82611bda565b602082019050919050565b60006020820190508181036000830152611c3f81611c03565b9050919050565b7f45766964656e6365206e6f742076616c69640000000000000000000000000000600082015250565b6000611c7c601283611329565b9150611c8782611c46565b602082019050919050565b60006020820190508181036000830152611cab81611c6f565b9050919050565b7f4e487b7100000000000000000000000000000000000000000000000000000000600052603260045260246000fd5b6000611cec82610dae565b91507fffffffffffffffffffffffffffffffffffffffffffffffffffffffffffffffff8203611d1e57611d1d6118ac565b5b600182019050919050565b7f4c6576656c2061737369676e6564000000000000000000000000000000000000600082015250565b6000611d5f600e83611329565b9150611d6a82611d29565b602082019050919050565b60006020820190508181036000830152611d8e81611d52565b905091905056fea2646970667358221220b4da06df012087173591dd6ec4c497767e25c9db32b812f693e883b1db105ffd64736f6c63430008110033",
  "immutableReferences": {},
  "source": "// SPDX-License-Identifier: MIT\r\npragma solidity ^0.8.17;\r\n\r\nimport \"./AssignRole.sol\";\r\n\r\ncontract Case{\r\n    AssignRole public assignrole;\r\n    constructor (address _assignrole) {\r\n      assignrole = AssignRole(_assignrole); \r\n    }\r\n    \r\n    struct SCase{\r\n        string ID;\r\n        bytes32 IDhash;\r\n        mapping (bytes32 => uint) AssignedEvidences;\r\n        mapping (bytes32 => uint) UnassignedEvidences;\r\n        mapping (address => uint) investigators; // list is expensive , use mapping instead\r\n        address HI;\r\n        uint evid;\r\n    }\r\n    uint[] Cases; \r\n    mapping(uint => SCase) cases; // keep track of mulitple cases running\r\n    mapping (uint => address) Head_Investigators;\r\n    // create a case , check for head investigator \r\n    event RegistrationDone(string, string, uint, address);\r\n    event InvestigatorRemoved(string, address, uint);\r\n    event EvidenceAssignedLevel(string, bytes32, uint);\r\n    event EvidenceRegistered(string, bytes32, address);\r\n    \r\n    function does_case_exists(uint num) public view returns(bool){\r\n        for(uint i =0; i<Cases.length; i++){\r\n            if(Cases[i] == num){\r\n                return true;\r\n            }\r\n        }\r\n        return false;\r\n    }\r\n\r\n\r\n    function createcase(string memory name, uint case_number, address HI) public payable {       // create case\r\n        require(does_case_exists(case_number) == false, \"Case is already created\");\r\n        require(assignrole.returnRole(HI) == 1, \"Only Head Investigator can create cases\");\r\n        SCase storage newCase = cases[case_number];\r\n        newCase.ID = name;\r\n        newCase.IDhash = keccak256(abi.encodePacked(name));\r\n        newCase.HI = HI;\r\n        newCase.investigators[HI] = 1;\r\n        Cases.push(case_number);\r\n        Head_Investigators[case_number] = HI;\r\n        emit RegistrationDone (\"Case Registered\", name, case_number,Head_Investigators[case_number]);\r\n    }\r\n\r\n    function returnHI(uint case_number) public payable returns(address){ // return HI\r\n        return (Head_Investigators[case_number]); \r\n        \r\n    }\r\n\r\n    function is_authorized(address user, uint number) public view returns(bool) { // DAC\r\n        SCase storage nC = cases[number];\r\n        if (nC.investigators[user] == 1){\r\n            return true;\r\n        }\r\n        return false;\r\n    }\r\n\r\n    function add_investigator(address inv, uint num) public payable{    // DAC\r\n\r\n        SCase storage newC= cases[num];\r\n        newC.investigators[inv] = 1;\r\n\r\n    }\r\n    \r\n    function does_evidence_exists(uint case_number, bytes32 key) public view returns(bool){  // evi exists\r\n        require(does_case_exists(case_number) == true, \"Case does not exists\");\r\n        SCase storage c = cases[case_number];\r\n        if (c.AssignedEvidences[key]>0){\r\n            return true;\r\n        }\r\n        if (c.UnassignedEvidences[key]>0){\r\n            return true;\r\n        }\r\n        return false; \r\n    }\r\n\r\n    function is_level_assigned(uint case_number, bytes32 key) public view returns(bool){ // level \r\n        SCase storage c = cases[case_number];\r\n        if(c.UnassignedEvidences[key] == 1){\r\n            return false;\r\n        }\r\n        return true;\r\n    }\r\n\r\n    function remove_investigator(uint case_number, address inv) public payable{   // access revokation\r\n        // remove an investigator from DAC policy\r\n        SCase storage nC = cases[case_number];\r\n        nC.investigators[inv] = 0;\r\n        emit InvestigatorRemoved(\"Investigator has been removed from case\", inv, case_number);\r\n    }\r\n\r\n    function setlevel(bytes32 key, uint case_num) public payable{ // set level never show this \r\n        SCase storage nc = cases[case_num];\r\n        uint lvl = nc.evid;\r\n        if(lvl == 0){\r\n            lvl =lvl+1;\r\n        }\r\n        if(lvl > 7){\r\n            lvl = 7;\r\n        }\r\n        nc.AssignedEvidences[key] = lvl; // addition to Assigned evidences\r\n        nc.UnassignedEvidences[key] = 0; // removal from Unassigned evidences \r\n        emit EvidenceAssignedLevel(\"Evidence as been assigned a level\", key, lvl);\r\n    }\r\n\r\n    function assign_inl(uint case_num, string memory ev) public payable {  // assign level\r\n        bytes32 key = keccak256(abi.encodePacked(ev));\r\n        require(does_case_exists(case_num) == true , \"Case does not exists\");\r\n        require(does_evidence_exists(case_num,key) == true , \"Evidence exists\");\r\n        require(is_level_assigned(case_num,key) == false, \"Level assigned\" );\r\n        setlevel(key, case_num);\r\n    }\r\n    function register_evi(uint case_num, string memory ev, address user)public payable{ // simple register\r\n        bytes32 key = keccak256(abi.encodePacked(ev));\r\n        require(does_case_exists(case_num) == true , \"Case does not exists\");\r\n        require(does_evidence_exists(case_num,key) == false , \"Evidence exists\");\r\n        SCase storage nC = cases[case_num];\r\n        nC.UnassignedEvidences[key] = 1;\r\n        nC.evid += 1;\r\n        emit EvidenceRegistered(\"Evidence has been registered by\", key, user);\r\n\r\n    }\r\n\r\n    function return_level(uint case_num, bytes32 key) public payable returns(uint){   // return level if a evidence \r\n        require(does_case_exists(case_num) == true, \"Case does not exists\");\r\n        require(does_evidence_exists(case_num, key) == true , \"Evidence does not exists\");\r\n        require(is_level_assigned(case_num, key) == true , \"Evidence not valid\");\r\n        SCase storage nc = cases[case_num];\r\n        uint lvl = nc.AssignedEvidences[key];\r\n        return lvl;\r\n    }\r\n\r\n}",
  "sourcePath": "C:\\Users\\Lokesh\\Desktop\\intuit (4)\\pro\\contracts\\Case.sol",
  "compiler": {
    "name": "solc",
    "version": "0.8.17+commit.8df45f5f.Emscripten.clang"
  },
  "schemaVersion": "3.4.15",
  "updatedAt": "2024-02-27T07:32:49.144Z",
  "networkType": "ethereum",
  "devdoc": {
    "kind": "dev",
    "methods": {},
    "version": 1
  },
  "userdoc": {
    "kind": "user",
    "methods": {},
    "version": 1
  }
}