{
  "contractName": "Evidence",
  "abi": [
    {
      "inputs": [
        {
          "internalType": "address",
          "name": "_caseContract",
          "type": "address"
        }
      ],
      "stateMutability": "nonpayable",
      "type": "constructor"
    },
    {
      "inputs": [],
      "name": "caseContract",
      "outputs": [
        {
          "internalType": "contract Case",
          "name": "",
          "type": "address"
        }
      ],
      "stateMutability": "view",
      "type": "function",
      "constant": true
    },
    {
      "inputs": [
        {
          "internalType": "string",
          "name": "evidence",
          "type": "string"
        },
        {
          "internalType": "uint256",
          "name": "case_number",
          "type": "uint256"
        }
      ],
      "name": "_register_evidence",
      "outputs": [],
      "stateMutability": "payable",
      "type": "function",
      "payable": true
    },
    {
      "inputs": [
        {
          "internalType": "string",
          "name": "evidence",
          "type": "string"
        },
        {
          "internalType": "uint256",
          "name": "case_number",
          "type": "uint256"
        }
      ],
      "name": "level_assignment",
      "outputs": [],
      "stateMutability": "payable",
      "type": "function",
      "payable": true
    }
  ],
  "bytecode": "0x608060405234801561001057600080fd5b506040516108e33803806108e3833981810160405281019061003291906100db565b806000806101000a81548173ffffffffffffffffffffffffffffffffffffffff021916908373ffffffffffffffffffffffffffffffffffffffff16021790555050610108565b600080fd5b600073ffffffffffffffffffffffffffffffffffffffff82169050919050565b60006100a88261007d565b9050919050565b6100b88161009d565b81146100c357600080fd5b50565b6000815190506100d5816100af565b92915050565b6000602082840312156100f1576100f0610078565b5b60006100ff848285016100c6565b91505092915050565b6107cc806101176000396000f3fe6080604052600436106100345760003560e01c80633710672714610039578063a6abf3f714610055578063d556e8e614610071575b600080fd5b610053600480360381019061004e919061047d565b61009c565b005b61006f600480360381019061006a919061047d565b61012f565b005b34801561007d57600080fd5b506100866102c9565b6040516100939190610558565b60405180910390f35b60008054906101000a900473ffffffffffffffffffffffffffffffffffffffff1673ffffffffffffffffffffffffffffffffffffffff1663257dbfc38284336040518463ffffffff1660e01b81526004016100f993929190610622565b600060405180830381600087803b15801561011357600080fd5b505af1158015610127573d6000803e3d6000fd5b505050505050565b60008054906101000a900473ffffffffffffffffffffffffffffffffffffffff1673ffffffffffffffffffffffffffffffffffffffff166374bab760826040518263ffffffff1660e01b81526004016101889190610660565b6020604051808303816000875af11580156101a7573d6000803e3d6000fd5b505050506040513d601f19601f820116820180604052508101906101cb91906106a7565b73ffffffffffffffffffffffffffffffffffffffff163373ffffffffffffffffffffffffffffffffffffffff1614610238576040517f08c379a000000000000000000000000000000000000000000000000000000000815260040161022f90610746565b60405180910390fd5b60008054906101000a900473ffffffffffffffffffffffffffffffffffffffff1673ffffffffffffffffffffffffffffffffffffffff1663bffc4bbf82846040518363ffffffff1660e01b8152600401610293929190610766565b600060405180830381600087803b1580156102ad57600080fd5b505af11580156102c1573d6000803e3d6000fd5b505050505050565b60008054906101000a900473ffffffffffffffffffffffffffffffffffffffff1681565b6000604051905090565b600080fd5b600080fd5b600080fd5b600080fd5b6000601f19601f8301169050919050565b7f4e487b7100000000000000000000000000000000000000000000000000000000600052604160045260246000fd5b6103548261030b565b810181811067ffffffffffffffff821117156103735761037261031c565b5b80604052505050565b60006103866102ed565b9050610392828261034b565b919050565b600067ffffffffffffffff8211156103b2576103b161031c565b5b6103bb8261030b565b9050602081019050919050565b82818337600083830152505050565b60006103ea6103e584610397565b61037c565b90508281526020810184848401111561040657610405610306565b5b6104118482856103c8565b509392505050565b600082601f83011261042e5761042d610301565b5b813561043e8482602086016103d7565b91505092915050565b6000819050919050565b61045a81610447565b811461046557600080fd5b50565b60008135905061047781610451565b92915050565b60008060408385031215610494576104936102f7565b5b600083013567ffffffffffffffff8111156104b2576104b16102fc565b5b6104be85828601610419565b92505060206104cf85828601610468565b9150509250929050565b600073ffffffffffffffffffffffffffffffffffffffff82169050919050565b6000819050919050565b600061051e610519610514846104d9565b6104f9565b6104d9565b9050919050565b600061053082610503565b9050919050565b600061054282610525565b9050919050565b61055281610537565b82525050565b600060208201905061056d6000830184610549565b92915050565b61057c81610447565b82525050565b600081519050919050565b600082825260208201905092915050565b60005b838110156105bc5780820151818401526020810190506105a1565b60008484015250505050565b60006105d382610582565b6105dd818561058d565b93506105ed81856020860161059e565b6105f68161030b565b840191505092915050565b600061060c826104d9565b9050919050565b61061c81610601565b82525050565b60006060820190506106376000830186610573565b818103602083015261064981856105c8565b90506106586040830184610613565b949350505050565b60006020820190506106756000830184610573565b92915050565b61068481610601565b811461068f57600080fd5b50565b6000815190506106a18161067b565b92915050565b6000602082840312156106bd576106bc6102f7565b5b60006106cb84828501610692565b91505092915050565b7f6f6e6c79204849206f662072656c6174656420636173652063616e206173736960008201527f676e206c6576656c000000000000000000000000000000000000000000000000602082015250565b600061073060288361058d565b915061073b826106d4565b604082019050919050565b6000602082019050818103600083015261075f81610723565b9050919050565b600060408201905061077b6000830185610573565b818103602083015261078d81846105c8565b9050939250505056fea26469706673582212208388cb3bfba67f72406ce1d8f2a8683b9473a676e51578d9ae746a5c1876c7e464736f6c63430008110033",
  "immutableReferences": {},
  "source": "// SPDX-License-Identifier: MIT\r\npragma solidity ^0.8.17;\r\n\r\nimport \"./Case.sol\";\r\n\r\ncontract Evidence{\r\n   \r\n    Case public caseContract;\r\n\r\n    constructor (address _caseContract){\r\n        caseContract = Case(_caseContract);\r\n    }\r\n\r\n    function _register_evidence(string memory evidence, uint case_number) public payable{\r\n        // check authorization\r\n        caseContract.register_evi(case_number,evidence, msg.sender);\r\n    }\r\n\r\n    function level_assignment(string memory evidence, uint case_number) public payable{\r\n        require(msg.sender == caseContract.returnHI(case_number), \"only HI of related case can assign level\");\r\n        caseContract.assign_inl(case_number, evidence);\r\n    }\r\n}",
  "sourcePath": "C:\\Users\\Lokesh\\Desktop\\intuit (4)\\pro\\contracts\\Evidence .sol",
  "compiler": {
    "name": "solc",
    "version": "0.8.17+commit.8df45f5f.Emscripten.clang"
  },
  "schemaVersion": "3.4.15",
  "updatedAt": "2024-02-27T07:32:47.375Z",
  "networkType": "ethereum",
  "devdoc": {
    "kind": "dev",
    "methods": {},
    "version": 1
  },
  "userdoc": {
    "kind": "user",
    "methods": {},
    "version": 1
  }
}