{
  "contractName": "Register",
  "abi": [
    {
      "inputs": [
        {
          "internalType": "address",
          "name": "_roleContract",
          "type": "address"
        }
      ],
      "stateMutability": "nonpayable",
      "type": "constructor"
    },
    {
      "inputs": [],
      "name": "register",
      "outputs": [
        {
          "internalType": "contract Register",
          "name": "",
          "type": "address"
        }
      ],
      "stateMutability": "view",
      "type": "function",
      "constant": true
    },
    {
      "inputs": [],
      "name": "roleContract",
      "outputs": [
        {
          "internalType": "contract AssignRole",
          "name": "",
          "type": "address"
        }
      ],
      "stateMutability": "view",
      "type": "function",
      "constant": true
    },
    {
      "inputs": [
        {
          "internalType": "string",
          "name": "designation",
          "type": "string"
        }
      ],
      "name": "register_user",
      "outputs": [],
      "stateMutability": "nonpayable",
      "type": "function"
    }
  ],
  "bytecode": "0x608060405234801561001057600080fd5b5060405161060e38038061060e833981810160405281019061003291906100db565b806000806101000a81548173ffffffffffffffffffffffffffffffffffffffff021916908373ffffffffffffffffffffffffffffffffffffffff16021790555050610108565b600080fd5b600073ffffffffffffffffffffffffffffffffffffffff82169050919050565b60006100a88261007d565b9050919050565b6100b88161009d565b81146100c357600080fd5b50565b6000815190506100d5816100af565b92915050565b6000602082840312156100f1576100f0610078565b5b60006100ff848285016100c6565b91505092915050565b6104f7806101176000396000f3fe608060405234801561001057600080fd5b50600436106100415760003560e01c80631aa3a00814610046578063d014fe4014610064578063f89723b814610080575b600080fd5b61004e61009e565b60405161005b91906101f7565b60405180910390f35b61007e6004803603810190610079919061036c565b6100c4565b005b610088610154565b60405161009591906103d6565b60405180910390f35b600160009054906101000a900473ffffffffffffffffffffffffffffffffffffffff1681565b60008054906101000a900473ffffffffffffffffffffffffffffffffffffffff1673ffffffffffffffffffffffffffffffffffffffff1663cfde189082336040518363ffffffff1660e01b815260040161011f929190610491565b600060405180830381600087803b15801561013957600080fd5b505af115801561014d573d6000803e3d6000fd5b5050505050565b60008054906101000a900473ffffffffffffffffffffffffffffffffffffffff1681565b600073ffffffffffffffffffffffffffffffffffffffff82169050919050565b6000819050919050565b60006101bd6101b86101b384610178565b610198565b610178565b9050919050565b60006101cf826101a2565b9050919050565b60006101e1826101c4565b9050919050565b6101f1816101d6565b82525050565b600060208201905061020c60008301846101e8565b92915050565b6000604051905090565b600080fd5b600080fd5b600080fd5b600080fd5b6000601f19601f8301169050919050565b7f4e487b7100000000000000000000000000000000000000000000000000000000600052604160045260246000fd5b61027982610230565b810181811067ffffffffffffffff8211171561029857610297610241565b5b80604052505050565b60006102ab610212565b90506102b78282610270565b919050565b600067ffffffffffffffff8211156102d7576102d6610241565b5b6102e082610230565b9050602081019050919050565b82818337600083830152505050565b600061030f61030a846102bc565b6102a1565b90508281526020810184848401111561032b5761032a61022b565b5b6103368482856102ed565b509392505050565b600082601f83011261035357610352610226565b5b81356103638482602086016102fc565b91505092915050565b6000602082840312156103825761038161021c565b5b600082013567ffffffffffffffff8111156103a05761039f610221565b5b6103ac8482850161033e565b91505092915050565b60006103c0826101c4565b9050919050565b6103d0816103b5565b82525050565b60006020820190506103eb60008301846103c7565b92915050565b600081519050919050565b600082825260208201905092915050565b60005b8381101561042b578082015181840152602081019050610410565b60008484015250505050565b6000610442826103f1565b61044c81856103fc565b935061045c81856020860161040d565b61046581610230565b840191505092915050565b600061047b82610178565b9050919050565b61048b81610470565b82525050565b600060408201905081810360008301526104ab8185610437565b90506104ba6020830184610482565b939250505056fea264697066735822122092603f0e4c10b011eed4be59f85facc5f09a09eeb05e11197f589be6294980be64736f6c63430008110033",
  "immutableReferences": {},
  "source": "// SPDX-License-Identifier: MIT\r\npragma solidity ^0.8.17;\r\n\r\nimport \"./AssignRole.sol\";\r\n\r\ncontract Register{\r\n    AssignRole public roleContract;\r\n    \r\n    constructor (address _roleContract){\r\n        roleContract = AssignRole(_roleContract);\r\n    }\r\n    function register_user(string memory designation) public {  \r\n        roleContract.setRole(designation, msg.sender);\r\n    }\r\n    Register public register;\r\n}",
  "sourcePath": "C:\\Users\\Lokesh\\Desktop\\intuit (4)\\pro\\contracts\\Register.sol",
  "compiler": {
    "name": "solc",
    "version": "0.8.17+commit.8df45f5f.Emscripten.clang"
  },
  "schemaVersion": "3.4.15",
  "updatedAt": "2024-02-27T07:32:45.895Z",
  "networkType": "ethereum",
  "devdoc": {
    "kind": "dev",
    "methods": {},
    "version": 1
  },
  "userdoc": {
    "kind": "user",
    "methods": {},
    "version": 1
  }
}